{
  "contractName": "CompoundIntegration",
  "abi": [
    {
      "inputs": [
        {
          "internalType": "address",
          "name": "_comptroller",
          "type": "address"
        },
        {
          "internalType": "address",
          "name": "_priceOracle",
          "type": "address"
        },
        {
          "internalType": "address",
          "name": "_cETHAddress",
          "type": "address"
        }
      ],
      "stateMutability": "nonpayable",
      "type": "constructor"
    },
    {
      "inputs": [],
      "name": "_getCompAddress",
      "outputs": [
        {
          "internalType": "address",
          "name": "",
          "type": "address"
        }
      ],
      "stateMutability": "view",
      "type": "function",
      "constant": true
    },
    {
      "inputs": [],
      "name": "_getCompBalance",
      "outputs": [
        {
          "internalType": "uint256",
          "name": "",
          "type": "uint256"
        }
      ],
      "stateMutability": "view",
      "type": "function",
      "constant": true
    },
    {
      "inputs": [
        {
          "internalType": "address",
          "name": "cTokenAddress",
          "type": "address"
        }
      ],
      "name": "_getUnderlyingPrice",
      "outputs": [
        {
          "internalType": "uint256",
          "name": "",
          "type": "uint256"
        }
      ],
      "stateMutability": "view",
      "type": "function",
      "constant": true
    },
    {
      "inputs": [],
      "name": "cETH",
      "outputs": [
        {
          "internalType": "contract CETHInterface",
          "name": "",
          "type": "address"
        }
      ],
      "stateMutability": "view",
      "type": "function",
      "constant": true
    },
    {
      "inputs": [
        {
          "internalType": "uint256",
          "name": "",
          "type": "uint256"
        }
      ],
      "name": "cTokenList",
      "outputs": [
        {
          "internalType": "bytes32",
          "name": "",
          "type": "bytes32"
        }
      ],
      "stateMutability": "view",
      "type": "function",
      "constant": true
    },
    {
      "inputs": [
        {
          "internalType": "bytes32",
          "name": "",
          "type": "bytes32"
        }
      ],
      "name": "cTokens",
      "outputs": [
        {
          "internalType": "bytes32",
          "name": "cTokenTicker",
          "type": "bytes32"
        },
        {
          "internalType": "address",
          "name": "cTokenAddress",
          "type": "address"
        },
        {
          "internalType": "bytes32",
          "name": "underlyingTicker",
          "type": "bytes32"
        },
        {
          "internalType": "address",
          "name": "underlyingAddress",
          "type": "address"
        },
        {
          "internalType": "uint8",
          "name": "underlyingDecimals",
          "type": "uint8"
        },
        {
          "internalType": "bool",
          "name": "collateral",
          "type": "bool"
        }
      ],
      "stateMutability": "view",
      "type": "function",
      "constant": true
    },
    {
      "inputs": [],
      "name": "collateralCount",
      "outputs": [
        {
          "internalType": "uint256",
          "name": "",
          "type": "uint256"
        }
      ],
      "stateMutability": "view",
      "type": "function",
      "constant": true
    },
    {
      "inputs": [],
      "name": "comptroller",
      "outputs": [
        {
          "internalType": "contract ComptrollerInterface",
          "name": "",
          "type": "address"
        }
      ],
      "stateMutability": "view",
      "type": "function",
      "constant": true
    },
    {
      "inputs": [
        {
          "internalType": "bytes32",
          "name": "",
          "type": "bytes32"
        }
      ],
      "name": "isCollateral",
      "outputs": [
        {
          "internalType": "bool",
          "name": "",
          "type": "bool"
        }
      ],
      "stateMutability": "view",
      "type": "function",
      "constant": true
    },
    {
      "inputs": [],
      "name": "owner",
      "outputs": [
        {
          "internalType": "address",
          "name": "",
          "type": "address"
        }
      ],
      "stateMutability": "view",
      "type": "function",
      "constant": true
    },
    {
      "inputs": [],
      "name": "priceOracle",
      "outputs": [
        {
          "internalType": "contract PriceOracleInterface",
          "name": "",
          "type": "address"
        }
      ],
      "stateMutability": "view",
      "type": "function",
      "constant": true
    },
    {
      "inputs": [
        {
          "internalType": "uint256",
          "name": "",
          "type": "uint256"
        }
      ],
      "name": "tokenList",
      "outputs": [
        {
          "internalType": "bytes32",
          "name": "",
          "type": "bytes32"
        }
      ],
      "stateMutability": "view",
      "type": "function",
      "constant": true
    },
    {
      "inputs": [
        {
          "internalType": "bytes32",
          "name": "",
          "type": "bytes32"
        }
      ],
      "name": "tokens",
      "outputs": [
        {
          "internalType": "bytes32",
          "name": "ticker",
          "type": "bytes32"
        },
        {
          "internalType": "address",
          "name": "tokenAddress",
          "type": "address"
        }
      ],
      "stateMutability": "view",
      "type": "function",
      "constant": true
    },
    {
      "stateMutability": "payable",
      "type": "receive",
      "payable": true
    },
    {
      "inputs": [
        {
          "internalType": "bytes32",
          "name": "ticker",
          "type": "bytes32"
        },
        {
          "internalType": "address",
          "name": "tokenAddress",
          "type": "address"
        }
      ],
      "name": "addToken",
      "outputs": [],
      "stateMutability": "nonpayable",
      "type": "function"
    },
    {
      "inputs": [
        {
          "internalType": "bytes32",
          "name": "cTokenTicker",
          "type": "bytes32"
        },
        {
          "internalType": "address",
          "name": "cTokenAddress",
          "type": "address"
        },
        {
          "internalType": "bytes32",
          "name": "underlyingTicker",
          "type": "bytes32"
        },
        {
          "internalType": "uint8",
          "name": "underlyingDecimals",
          "type": "uint8"
        }
      ],
      "name": "addCToken",
      "outputs": [],
      "stateMutability": "nonpayable",
      "type": "function"
    },
    {
      "inputs": [],
      "name": "getTokens",
      "outputs": [
        {
          "components": [
            {
              "internalType": "bytes32",
              "name": "ticker",
              "type": "bytes32"
            },
            {
              "internalType": "address",
              "name": "tokenAddress",
              "type": "address"
            }
          ],
          "internalType": "struct CompoundIntegration.Token[]",
          "name": "",
          "type": "tuple[]"
        }
      ],
      "stateMutability": "view",
      "type": "function",
      "constant": true
    },
    {
      "inputs": [],
      "name": "getCTokens",
      "outputs": [
        {
          "components": [
            {
              "internalType": "bytes32",
              "name": "cTokenTicker",
              "type": "bytes32"
            },
            {
              "internalType": "address",
              "name": "cTokenAddress",
              "type": "address"
            },
            {
              "internalType": "bytes32",
              "name": "underlyingTicker",
              "type": "bytes32"
            },
            {
              "internalType": "address",
              "name": "underlyingAddress",
              "type": "address"
            },
            {
              "internalType": "uint8",
              "name": "underlyingDecimals",
              "type": "uint8"
            },
            {
              "internalType": "bool",
              "name": "collateral",
              "type": "bool"
            }
          ],
          "internalType": "struct CompoundIntegration.cToken[]",
          "name": "",
          "type": "tuple[]"
        }
      ],
      "stateMutability": "view",
      "type": "function",
      "constant": true
    },
    {
      "inputs": [
        {
          "internalType": "bytes32",
          "name": "ticker",
          "type": "bytes32"
        },
        {
          "internalType": "uint256",
          "name": "amount",
          "type": "uint256"
        }
      ],
      "name": "deposit",
      "outputs": [],
      "stateMutability": "nonpayable",
      "type": "function"
    },
    {
      "inputs": [
        {
          "internalType": "bytes32",
          "name": "cTokenTicker",
          "type": "bytes32"
        },
        {
          "internalType": "uint256",
          "name": "amount",
          "type": "uint256"
        }
      ],
      "name": "depositCToken",
      "outputs": [],
      "stateMutability": "nonpayable",
      "type": "function"
    },
    {
      "inputs": [
        {
          "internalType": "bytes32",
          "name": "ticker",
          "type": "bytes32"
        },
        {
          "internalType": "uint256",
          "name": "amount",
          "type": "uint256"
        }
      ],
      "name": "withdraw",
      "outputs": [],
      "stateMutability": "nonpayable",
      "type": "function"
    },
    {
      "inputs": [
        {
          "internalType": "bytes32",
          "name": "cTokenTicker",
          "type": "bytes32"
        },
        {
          "internalType": "uint256",
          "name": "amount",
          "type": "uint256"
        }
      ],
      "name": "withdrawCToken",
      "outputs": [],
      "stateMutability": "nonpayable",
      "type": "function"
    },
    {
      "inputs": [
        {
          "internalType": "uint256",
          "name": "amount",
          "type": "uint256"
        }
      ],
      "name": "withdrawETH",
      "outputs": [],
      "stateMutability": "nonpayable",
      "type": "function"
    },
    {
      "inputs": [
        {
          "internalType": "address",
          "name": "cTokenAddress",
          "type": "address"
        },
        {
          "internalType": "uint256",
          "name": "underlyingAmount",
          "type": "uint256"
        }
      ],
      "name": "supply",
      "outputs": [],
      "stateMutability": "nonpayable",
      "type": "function"
    },
    {
      "inputs": [
        {
          "internalType": "uint256",
          "name": "underlyingAmount",
          "type": "uint256"
        }
      ],
      "name": "supplyETH",
      "outputs": [],
      "stateMutability": "nonpayable",
      "type": "function"
    },
    {
      "inputs": [
        {
          "internalType": "address",
          "name": "cTokenAddress",
          "type": "address"
        },
        {
          "internalType": "uint256",
          "name": "redeemAmount",
          "type": "uint256"
        }
      ],
      "name": "redeem",
      "outputs": [],
      "stateMutability": "nonpayable",
      "type": "function"
    },
    {
      "inputs": [
        {
          "internalType": "uint256",
          "name": "redeemAmount",
          "type": "uint256"
        }
      ],
      "name": "redeemETH",
      "outputs": [],
      "stateMutability": "nonpayable",
      "type": "function"
    },
    {
      "inputs": [
        {
          "internalType": "address",
          "name": "cTokenAddress",
          "type": "address"
        },
        {
          "internalType": "uint256",
          "name": "borrowAmount",
          "type": "uint256"
        }
      ],
      "name": "borrow",
      "outputs": [],
      "stateMutability": "nonpayable",
      "type": "function"
    },
    {
      "inputs": [
        {
          "internalType": "uint256",
          "name": "borrowAmount",
          "type": "uint256"
        }
      ],
      "name": "borrowETH",
      "outputs": [],
      "stateMutability": "nonpayable",
      "type": "function"
    },
    {
      "inputs": [
        {
          "internalType": "address",
          "name": "cTokenAddress",
          "type": "address"
        },
        {
          "internalType": "uint256",
          "name": "underlyingAmount",
          "type": "uint256"
        }
      ],
      "name": "repayBorrow",
      "outputs": [],
      "stateMutability": "nonpayable",
      "type": "function"
    },
    {
      "inputs": [
        {
          "internalType": "uint256",
          "name": "underlyingAmount",
          "type": "uint256"
        }
      ],
      "name": "repayBorrowETH",
      "outputs": [],
      "stateMutability": "nonpayable",
      "type": "function"
    },
    {
      "inputs": [
        {
          "internalType": "bytes32",
          "name": "cTokenTicker",
          "type": "bytes32"
        }
      ],
      "name": "enterMarket",
      "outputs": [],
      "stateMutability": "nonpayable",
      "type": "function"
    },
    {
      "inputs": [
        {
          "internalType": "bytes32",
          "name": "cTokenTicker",
          "type": "bytes32"
        }
      ],
      "name": "exitMarket",
      "outputs": [],
      "stateMutability": "nonpayable",
      "type": "function"
    },
    {
      "inputs": [],
      "name": "claimComp",
      "outputs": [],
      "stateMutability": "nonpayable",
      "type": "function"
    },
    {
      "inputs": [
        {
          "internalType": "uint256",
          "name": "amount",
          "type": "uint256"
        }
      ],
      "name": "withdrawComp",
      "outputs": [],
      "stateMutability": "nonpayable",
      "type": "function"
    },
    {
      "inputs": [],
      "name": "getCompBalance",
      "outputs": [
        {
          "internalType": "uint256",
          "name": "",
          "type": "uint256"
        }
      ],
      "stateMutability": "view",
      "type": "function",
      "constant": true
    },
    {
      "inputs": [
        {
          "internalType": "bytes32",
          "name": "cTokenTicker",
          "type": "bytes32"
        }
      ],
      "name": "getMaxBorrow",
      "outputs": [
        {
          "internalType": "uint256",
          "name": "",
          "type": "uint256"
        }
      ],
      "stateMutability": "view",
      "type": "function",
      "constant": true
    },
    {
      "inputs": [],
      "name": "getBorrowLimit",
      "outputs": [
        {
          "internalType": "uint256",
          "name": "",
          "type": "uint256"
        }
      ],
      "stateMutability": "view",
      "type": "function",
      "constant": true
    },
    {
      "inputs": [
        {
          "internalType": "bytes32",
          "name": "cTokenTicker",
          "type": "bytes32"
        }
      ],
      "name": "getSupplyBalance",
      "outputs": [
        {
          "internalType": "uint256",
          "name": "",
          "type": "uint256"
        }
      ],
      "stateMutability": "view",
      "type": "function",
      "constant": true
    },
    {
      "inputs": [
        {
          "internalType": "bytes32",
          "name": "cTokenTicker",
          "type": "bytes32"
        }
      ],
      "name": "getBorrowBalance",
      "outputs": [
        {
          "internalType": "uint256",
          "name": "",
          "type": "uint256"
        }
      ],
      "stateMutability": "nonpayable",
      "type": "function"
    },
    {
      "inputs": [
        {
          "internalType": "bytes32",
          "name": "cTokenTicker",
          "type": "bytes32"
        }
      ],
      "name": "getExchangeRate",
      "outputs": [
        {
          "internalType": "uint256",
          "name": "",
          "type": "uint256"
        }
      ],
      "stateMutability": "nonpayable",
      "type": "function"
    },
    {
      "inputs": [
        {
          "internalType": "bytes32",
          "name": "cTokenTicker",
          "type": "bytes32"
        }
      ],
      "name": "getUnderlyingPrice",
      "outputs": [
        {
          "internalType": "uint256",
          "name": "",
          "type": "uint256"
        }
      ],
      "stateMutability": "view",
      "type": "function",
      "constant": true
    },
    {
      "inputs": [
        {
          "internalType": "bytes32",
          "name": "cTokenTicker",
          "type": "bytes32"
        }
      ],
      "name": "getUnderlyingBalance",
      "outputs": [
        {
          "internalType": "uint256",
          "name": "",
          "type": "uint256"
        }
      ],
      "stateMutability": "nonpayable",
      "type": "function"
    }
  ],
  "bytecode": "0x60806040523480156200001157600080fd5b5060405162004fd638038062004fd6833981810160405281019062000037919062000160565b828282826000806101000a81548173ffffffffffffffffffffffffffffffffffffffff021916908373ffffffffffffffffffffffffffffffffffffffff16021790555081600160006101000a81548173ffffffffffffffffffffffffffffffffffffffff021916908373ffffffffffffffffffffffffffffffffffffffff16021790555080600260006101000a81548173ffffffffffffffffffffffffffffffffffffffff021916908373ffffffffffffffffffffffffffffffffffffffff16021790555050505033600760006101000a81548173ffffffffffffffffffffffffffffffffffffffff021916908373ffffffffffffffffffffffffffffffffffffffff16021790555050505062000204565b6000815190506200015a81620001ea565b92915050565b6000806000606084860312156200017657600080fd5b6000620001868682870162000149565b9350506020620001998682870162000149565b9250506040620001ac8682870162000149565b9150509250925092565b6000620001c382620001ca565b9050919050565b600073ffffffffffffffffffffffffffffffffffffffff82169050919050565b620001f581620001b6565b81146200020157600080fd5b50565b614dc280620002146000396000f3fe6080604052600436106102545760003560e01c80638da5cb5b11610139578063acc9f109116100b6578063d4e0d76a1161007a578063d4e0d76a146108f4578063e063ca731461091f578063e22581e21461095c578063f14210a614610985578063f2b9fdb8146109ae578063f98adaef146109d75761025b565b8063acc9f109146107f6578063b142fabc1461081f578063b6faaf8a1461084a578063be274d3214610875578063c1a9018a146108b25761025b565b8063a1b4d011116100fd578063a1b4d01114610711578063aa6ca8081461073c578063aadb694314610767578063abdb5ea8146107a4578063ac84ca14146107cd5761025b565b80638da5cb5b14610619578063904194a3146106445780639776aacf146106825780639d87440b146106ab5780639ead7222146106d45761025b565b80633804ee19116101d2578063566c606511610196578063566c6065146104f75780635d95df8a146105345780635fe3b567146105715780636e66df101461059c5780637ad3fca9146105c55780637b2af625146105f05761025b565b80633804ee19146104265780634b8a352914610451578063507c62dd1461047a578063512ed506146104a3578063525d02b8146104ce5761025b565b80631de26e16116102195780631de26e161461032f5780631e9a6950146103585780631fdbdc85146103815780632630c12f146103be578063301cc7f7146103e95761025b565b8062476a341461026057806301f6d04d14610289578063040cf020146102c657806312793e42146102ef5780631bd85bdb146103185761025b565b3661025b57005b600080fd5b34801561026c57600080fd5b5061028760048036038101906102829190613e86565b610a14565b005b34801561029557600080fd5b506102b060048036038101906102ab9190613e86565b610b54565b6040516102bd9190614ae2565b60405180910390f35b3480156102d257600080fd5b506102ed60048036038101906102e89190613f4e565b610b9c565b005b3480156102fb57600080fd5b5061031660048036038101906103119190613f8a565b610dcb565b005b34801561032457600080fd5b5061032d610e1a565b005b34801561033b57600080fd5b5061035660048036038101906103519190613f4e565b610eb4565b005b34801561036457600080fd5b5061037f600480360381019061037a9190613de0565b610f84565b005b34801561038d57600080fd5b506103a860048036038101906103a39190613f8a565b611073565b6040516103b5919061482c565b60405180910390f35b3480156103ca57600080fd5b506103d3611097565b6040516103e09190614907565b60405180910390f35b3480156103f557600080fd5b50610410600480360381019061040b9190613e86565b6110bd565b60405161041d9190614ae2565b60405180910390f35b34801561043257600080fd5b5061043b611105565b6040516104489190614ae2565b60405180910390f35b34801561045d57600080fd5b5061047860048036038101906104739190613de0565b611114565b005b34801561048657600080fd5b506104a1600480360381019061049c9190613eeb565b6111f7565b005b3480156104af57600080fd5b506104b8611491565b6040516104c591906146ec565b60405180910390f35b3480156104da57600080fd5b506104f560048036038101906104f09190613f8a565b611537565b005b34801561050357600080fd5b5061051e60048036038101906105199190613e86565b611623565b60405161052b9190614ae2565b60405180910390f35b34801561054057600080fd5b5061055b60048036038101906105569190613e86565b61166b565b6040516105689190614811565b60405180910390f35b34801561057d57600080fd5b5061058661168b565b60405161059391906148ec565b60405180910390f35b3480156105a857600080fd5b506105c360048036038101906105be9190613f4e565b6116af565b005b3480156105d157600080fd5b506105da6118de565b6040516105e79190614ae2565b60405180910390f35b3480156105fc57600080fd5b5061061760048036038101906106129190613f8a565b611986565b005b34801561062557600080fd5b5061062e6119d7565b60405161063b91906146ec565b60405180910390f35b34801561065057600080fd5b5061066b60048036038101906106669190613e86565b6119fd565b604051610679929190614847565b60405180910390f35b34801561068e57600080fd5b506106a960048036038101906106a49190613eaf565b611a41565b005b3480156106b757600080fd5b506106d260048036038101906106cd9190613e86565b611b90565b005b3480156106e057600080fd5b506106fb60048036038101906106f69190613f8a565b611d56565b604051610708919061482c565b60405180910390f35b34801561071d57600080fd5b50610726611d7a565b60405161073391906148d1565b60405180910390f35b34801561074857600080fd5b50610751611da0565b60405161075e91906147cd565b60405180910390f35b34801561077357600080fd5b5061078e60048036038101906107899190613e86565b611ede565b60405161079b9190614ae2565b60405180910390f35b3480156107b057600080fd5b506107cb60048036038101906107c69190613de0565b611f26565b005b3480156107d957600080fd5b506107f460048036038101906107ef9190613f8a565b612019565b005b34801561080257600080fd5b5061081d60048036038101906108189190613f8a565b6120f8565b005b34801561082b57600080fd5b506108346121ec565b60405161084191906147ef565b60405180910390f35b34801561085657600080fd5b5061085f61244b565b60405161086c9190614ae2565b60405180910390f35b34801561088157600080fd5b5061089c60048036038101906108979190613d8e565b612451565b6040516108a99190614ae2565b60405180910390f35b3480156108be57600080fd5b506108d960048036038101906108d49190613e86565b61250a565b6040516108eb96959493929190614870565b60405180910390f35b34801561090057600080fd5b506109096125a0565b6040516109169190614ae2565b60405180910390f35b34801561092b57600080fd5b5061094660048036038101906109419190613e86565b6125af565b6040516109539190614ae2565b60405180910390f35b34801561096857600080fd5b50610983600480360381019061097e9190613f4e565b6125f7565b005b34801561099157600080fd5b506109ac60048036038101906109a79190613f8a565b6126c7565b005b3480156109ba57600080fd5b506109d560048036038101906109d09190613de0565b6127ea565b005b3480156109e357600080fd5b506109fe60048036038101906109f99190613e86565b61296d565b604051610a0b9190614ae2565b60405180910390f35b600760009054906101000a900473ffffffffffffffffffffffffffffffffffffffff1673ffffffffffffffffffffffffffffffffffffffff163373ffffffffffffffffffffffffffffffffffffffff1614610aa4576040517f08c379a0000000000000000000000000000000000000000000000000000000008152600401610a9b90614a62565b60405180910390fd5b610ae36004600083815260200190815260200160002060010160009054906101000a900473ffffffffffffffffffffffffffffffffffffffff166129b5565b60006004600083815260200190815260200160002060030160156101000a81548160ff02191690831515021790555060006008600083815260200190815260200160002060006101000a81548160ff0219169083151502179055506009600081548092919060019003919050555050565b6000610b956004600084815260200190815260200160002060010160009054906101000a900473ffffffffffffffffffffffffffffffffffffffff16612aac565b9050919050565b600760009054906101000a900473ffffffffffffffffffffffffffffffffffffffff1673ffffffffffffffffffffffffffffffffffffffff163373ffffffffffffffffffffffffffffffffffffffff1614610c2c576040517f08c379a0000000000000000000000000000000000000000000000000000000008152600401610c2390614a62565b60405180910390fd5b60006003600084815260200190815260200160002060010160009054906101000a900473ffffffffffffffffffffffffffffffffffffffff16905060008173ffffffffffffffffffffffffffffffffffffffff166370a08231306040518263ffffffff1660e01b8152600401610ca29190614707565b60206040518083038186803b158015610cba57600080fd5b505afa158015610cce573d6000803e3d6000fd5b505050506040513d601f19601f82011682018060405250810190610cf29190613fb3565b905082811015610d37576040517f08c379a0000000000000000000000000000000000000000000000000000000008152600401610d2e906149c2565b60405180910390fd5b8173ffffffffffffffffffffffffffffffffffffffff1663a9059cbb33856040518363ffffffff1660e01b8152600401610d72929190614759565b602060405180830381600087803b158015610d8c57600080fd5b505af1158015610da0573d6000803e3d6000fd5b505050506040513d601f19601f82011682018060405250810190610dc49190613e5d565b5050505050565b80471015610e0e576040517f08c379a0000000000000000000000000000000000000000000000000000000008152600401610e05906149c2565b60405180910390fd5b610e1781612b40565b50565b600760009054906101000a900473ffffffffffffffffffffffffffffffffffffffff1673ffffffffffffffffffffffffffffffffffffffff163373ffffffffffffffffffffffffffffffffffffffff1614610eaa576040517f08c379a0000000000000000000000000000000000000000000000000000000008152600401610ea190614a62565b60405180910390fd5b610eb2612bc6565b565b60006003600084815260200190815260200160002060010160009054906101000a900473ffffffffffffffffffffffffffffffffffffffff1690508073ffffffffffffffffffffffffffffffffffffffff166323b872dd3330856040518463ffffffff1660e01b8152600401610f2c93929190614722565b602060405180830381600087803b158015610f4657600080fd5b505af1158015610f5a573d6000803e3d6000fd5b505050506040513d601f19601f82011682018060405250810190610f7e9190613e5d565b50505050565b600760009054906101000a900473ffffffffffffffffffffffffffffffffffffffff1673ffffffffffffffffffffffffffffffffffffffff163373ffffffffffffffffffffffffffffffffffffffff1614611014576040517f08c379a000000000000000000000000000000000000000000000000000000000815260040161100b90614a62565b60405180910390fd5b600061101f83612c53565b905081811015611064576040517f08c379a000000000000000000000000000000000000000000000000000000000815260040161105b906149c2565b60405180910390fd5b61106e8383612cf2565b505050565b6006818154811061108357600080fd5b906000526020600020016000915090505481565b600160009054906101000a900473ffffffffffffffffffffffffffffffffffffffff1681565b60006110fe6004600084815260200190815260200160002060010160009054906101000a900473ffffffffffffffffffffffffffffffffffffffff16612dcf565b9050919050565b600061110f612f75565b905090565b600760009054906101000a900473ffffffffffffffffffffffffffffffffffffffff1673ffffffffffffffffffffffffffffffffffffffff163373ffffffffffffffffffffffffffffffffffffffff16146111a4576040517f08c379a000000000000000000000000000000000000000000000000000000000815260040161119b90614a62565b60405180910390fd5b6000600954116111e9576040517f08c379a00000000000000000000000000000000000000000000000000000000081526004016111e090614a02565b60405180910390fd5b6111f382826130fc565b5050565b600760009054906101000a900473ffffffffffffffffffffffffffffffffffffffff1673ffffffffffffffffffffffffffffffffffffffff163373ffffffffffffffffffffffffffffffffffffffff1614611287576040517f08c379a000000000000000000000000000000000000000000000000000000000815260040161127e90614a62565b60405180910390fd5b60008373ffffffffffffffffffffffffffffffffffffffff16636f307dc36040518163ffffffff1660e01b815260040160206040518083038186803b1580156112cf57600080fd5b505afa1580156112e3573d6000803e3d6000fd5b505050506040513d601f19601f820116820180604052508101906113079190613db7565b90506040518060c001604052808681526020018573ffffffffffffffffffffffffffffffffffffffff1681526020018481526020018273ffffffffffffffffffffffffffffffffffffffff1681526020018360ff16815260200160001515815250600460008781526020019081526020016000206000820151816000015560208201518160010160006101000a81548173ffffffffffffffffffffffffffffffffffffffff021916908373ffffffffffffffffffffffffffffffffffffffff1602179055506040820151816002015560608201518160030160006101000a81548173ffffffffffffffffffffffffffffffffffffffff021916908373ffffffffffffffffffffffffffffffffffffffff16021790555060808201518160030160146101000a81548160ff021916908360ff16021790555060a08201518160030160156101000a81548160ff02191690831515021790555090505060068590806001815401808255809150506001900390600052602060002001600090919091909150555050505050565b60008060009054906101000a900473ffffffffffffffffffffffffffffffffffffffff1673ffffffffffffffffffffffffffffffffffffffff16639d1b5a0a6040518163ffffffff1660e01b815260040160206040518083038186803b1580156114fa57600080fd5b505afa15801561150e573d6000803e3d6000fd5b505050506040513d601f19601f820116820180604052508101906115329190613db7565b905090565b600760009054906101000a900473ffffffffffffffffffffffffffffffffffffffff1673ffffffffffffffffffffffffffffffffffffffff163373ffffffffffffffffffffffffffffffffffffffff16146115c7576040517f08c379a00000000000000000000000000000000000000000000000000000000081526004016115be90614a62565b60405180910390fd5b60006115d16131d9565b905081811015611616576040517f08c379a000000000000000000000000000000000000000000000000000000000815260040161160d906149c2565b60405180910390fd5b61161f8261328d565b5050565b60006116646004600084815260200190815260200160002060010160009054906101000a900473ffffffffffffffffffffffffffffffffffffffff16612c53565b9050919050565b60086020528060005260406000206000915054906101000a900460ff1681565b60008054906101000a900473ffffffffffffffffffffffffffffffffffffffff1681565b600760009054906101000a900473ffffffffffffffffffffffffffffffffffffffff1673ffffffffffffffffffffffffffffffffffffffff163373ffffffffffffffffffffffffffffffffffffffff161461173f576040517f08c379a000000000000000000000000000000000000000000000000000000000815260040161173690614a62565b60405180910390fd5b60006004600084815260200190815260200160002060010160009054906101000a900473ffffffffffffffffffffffffffffffffffffffff16905060008173ffffffffffffffffffffffffffffffffffffffff166370a08231306040518263ffffffff1660e01b81526004016117b59190614707565b60206040518083038186803b1580156117cd57600080fd5b505afa1580156117e1573d6000803e3d6000fd5b505050506040513d601f19601f820116820180604052508101906118059190613fb3565b90508281101561184a576040517f08c379a0000000000000000000000000000000000000000000000000000000008152600401611841906149c2565b60405180910390fd5b8173ffffffffffffffffffffffffffffffffffffffff1663a9059cbb33856040518363ffffffff1660e01b8152600401611885929190614759565b602060405180830381600087803b15801561189f57600080fd5b505af11580156118b3573d6000803e3d6000fd5b505050506040513d601f19601f820116820180604052508101906118d79190613e5d565b5050505050565b6000806118e9611491565b9050600081905060008173ffffffffffffffffffffffffffffffffffffffff166370a08231306040518263ffffffff1660e01b815260040161192b91906146ec565b60206040518083038186803b15801561194357600080fd5b505afa158015611957573d6000803e3d6000fd5b505050506040513d601f19601f8201168201806040525081019061197b9190613fb3565b905080935050505090565b6000600954116119cb576040517f08c379a00000000000000000000000000000000000000000000000000000000081526004016119c290614a02565b60405180910390fd5b6119d48161333e565b50565b600760009054906101000a900473ffffffffffffffffffffffffffffffffffffffff1681565b60036020528060005260406000206000915090508060000154908060010160009054906101000a900473ffffffffffffffffffffffffffffffffffffffff16905082565b600760009054906101000a900473ffffffffffffffffffffffffffffffffffffffff1673ffffffffffffffffffffffffffffffffffffffff163373ffffffffffffffffffffffffffffffffffffffff1614611ad1576040517f08c379a0000000000000000000000000000000000000000000000000000000008152600401611ac890614a62565b60405180910390fd5b60405180604001604052808381526020018273ffffffffffffffffffffffffffffffffffffffff16815250600360008481526020019081526020016000206000820151816000015560208201518160010160006101000a81548173ffffffffffffffffffffffffffffffffffffffff021916908373ffffffffffffffffffffffffffffffffffffffff16021790555090505060058290806001815401808255809150506001900390600052602060002001600090919091909150555050565b600760009054906101000a900473ffffffffffffffffffffffffffffffffffffffff1673ffffffffffffffffffffffffffffffffffffffff163373ffffffffffffffffffffffffffffffffffffffff1614611c20576040517f08c379a0000000000000000000000000000000000000000000000000000000008152600401611c1790614a62565b60405180910390fd5b6000611c616004600084815260200190815260200160002060010160009054906101000a900473ffffffffffffffffffffffffffffffffffffffff166133ef565b905060008111611ca6576040517f08c379a0000000000000000000000000000000000000000000000000000000008152600401611c9d906149c2565b60405180910390fd5b611ce56004600084815260200190815260200160002060010160009054906101000a900473ffffffffffffffffffffffffffffffffffffffff1661348c565b60016004600084815260200190815260200160002060030160156101000a81548160ff02191690831515021790555060016008600084815260200190815260200160002060006101000a81548160ff0219169083151502179055506009600081548092919060010191905055505050565b60058181548110611d6657600080fd5b906000526020600020016000915090505481565b600260009054906101000a900473ffffffffffffffffffffffffffffffffffffffff1681565b6060600060058054905067ffffffffffffffff81118015611dc057600080fd5b50604051908082528060200260200182016040528015611dfa57816020015b611de7613bc5565b815260200190600190039081611ddf5790505b50905060005b600580549050811015611ed65760405180604001604052806003600060058581548110611e2957fe5b906000526020600020015481526020019081526020016000206000015481526020016003600060058581548110611e5c57fe5b9060005260206000200154815260200190815260200160002060010160009054906101000a900473ffffffffffffffffffffffffffffffffffffffff1673ffffffffffffffffffffffffffffffffffffffff16815250828281518110611ebe57fe5b60200260200101819052508080600101915050611e00565b508091505090565b6000611f1f6004600084815260200190815260200160002060010160009054906101000a900473ffffffffffffffffffffffffffffffffffffffff16613631565b9050919050565b6000611f31836136d0565b9050600081905060008173ffffffffffffffffffffffffffffffffffffffff166370a08231306040518263ffffffff1660e01b8152600401611f739190614707565b60206040518083038186803b158015611f8b57600080fd5b505afa158015611f9f573d6000803e3d6000fd5b505050506040513d601f19601f82011682018060405250810190611fc39190613fb3565b905083811015612008576040517f08c379a0000000000000000000000000000000000000000000000000000000008152600401611fff906149c2565b60405180910390fd5b6120128585613757565b5050505050565b600760009054906101000a900473ffffffffffffffffffffffffffffffffffffffff1673ffffffffffffffffffffffffffffffffffffffff163373ffffffffffffffffffffffffffffffffffffffff16146120a9576040517f08c379a00000000000000000000000000000000000000000000000000000000081526004016120a090614a62565b60405180910390fd5b804710156120ec576040517f08c379a00000000000000000000000000000000000000000000000000000000081526004016120e3906149c2565b60405180910390fd5b6120f58161394b565b50565b60006121026118de565b905081811015612147576040517f08c379a000000000000000000000000000000000000000000000000000000000815260040161213e906149c2565b60405180910390fd5b6000612151611491565b905060008190508073ffffffffffffffffffffffffffffffffffffffff1663a9059cbb33866040518363ffffffff1660e01b8152600401612193929190614759565b602060405180830381600087803b1580156121ad57600080fd5b505af11580156121c1573d6000803e3d6000fd5b505050506040513d601f19601f820116820180604052508101906121e59190613e5d565b5050505050565b6060600060068054905067ffffffffffffffff8111801561220c57600080fd5b5060405190808252806020026020018201604052801561224657816020015b612233613bf8565b81526020019060019003908161222b5790505b50905060005b600680549050811015612443576040518060c00160405280600460006006858154811061227557fe5b9060005260206000200154815260200190815260200160002060000154815260200160046000600685815481106122a857fe5b9060005260206000200154815260200190815260200160002060010160009054906101000a900473ffffffffffffffffffffffffffffffffffffffff1673ffffffffffffffffffffffffffffffffffffffff168152602001600460006006858154811061231157fe5b90600052602060002001548152602001908152602001600020600201548152602001600460006006858154811061234457fe5b9060005260206000200154815260200190815260200160002060030160009054906101000a900473ffffffffffffffffffffffffffffffffffffffff1673ffffffffffffffffffffffffffffffffffffffff16815260200160046000600685815481106123ad57fe5b9060005260206000200154815260200190815260200160002060030160149054906101000a900460ff1660ff16815260200160046000600685815481106123f057fe5b9060005260206000200154815260200190815260200160002060030160159054906101000a900460ff16151581525082828151811061242b57fe5b6020026020010181905250808060010191505061224c565b508091505090565b60095481565b600080600160009054906101000a900473ffffffffffffffffffffffffffffffffffffffff1673ffffffffffffffffffffffffffffffffffffffff1663fc57d4df846040518263ffffffff1660e01b81526004016124af91906146ec565b60206040518083038186803b1580156124c757600080fd5b505afa1580156124db573d6000803e3d6000fd5b505050506040513d601f19601f820116820180604052508101906124ff9190613fb3565b905080915050919050565b60046020528060005260406000206000915090508060000154908060010160009054906101000a900473ffffffffffffffffffffffffffffffffffffffff16908060020154908060030160009054906101000a900473ffffffffffffffffffffffffffffffffffffffff16908060030160149054906101000a900460ff16908060030160159054906101000a900460ff16905086565b60006125aa6118de565b905090565b60006125f06004600084815260200190815260200160002060010160009054906101000a900473ffffffffffffffffffffffffffffffffffffffff166133ef565b9050919050565b60006004600084815260200190815260200160002060010160009054906101000a900473ffffffffffffffffffffffffffffffffffffffff1690508073ffffffffffffffffffffffffffffffffffffffff166323b872dd3330856040518463ffffffff1660e01b815260040161266f93929190614722565b602060405180830381600087803b15801561268957600080fd5b505af115801561269d573d6000803e3d6000fd5b505050506040513d601f19601f820116820180604052508101906126c19190613e5d565b50505050565b600760009054906101000a900473ffffffffffffffffffffffffffffffffffffffff1673ffffffffffffffffffffffffffffffffffffffff163373ffffffffffffffffffffffffffffffffffffffff1614612757576040517f08c379a000000000000000000000000000000000000000000000000000000000815260040161274e90614a62565b60405180910390fd5b8047101561279a576040517f08c379a0000000000000000000000000000000000000000000000000000000008152600401612791906149c2565b60405180910390fd5b60003390508073ffffffffffffffffffffffffffffffffffffffff166108fc839081150290604051600060405180830381858888f193505050501580156127e5573d6000803e3d6000fd5b505050565b600760009054906101000a900473ffffffffffffffffffffffffffffffffffffffff1673ffffffffffffffffffffffffffffffffffffffff163373ffffffffffffffffffffffffffffffffffffffff161461287a576040517f08c379a000000000000000000000000000000000000000000000000000000000815260040161287190614a62565b60405180910390fd5b6000612885836136d0565b9050600081905060008173ffffffffffffffffffffffffffffffffffffffff166370a08231306040518263ffffffff1660e01b81526004016128c79190614707565b60206040518083038186803b1580156128df57600080fd5b505afa1580156128f3573d6000803e3d6000fd5b505050506040513d601f19601f820116820180604052508101906129179190613fb3565b90508381101561295c576040517f08c379a0000000000000000000000000000000000000000000000000000000008152600401612953906149c2565b60405180910390fd5b61296685856139d1565b5050505050565b60006129ae6004600084815260200190815260200160002060010160009054906101000a900473ffffffffffffffffffffffffffffffffffffffff16612451565b9050919050565b60008060009054906101000a900473ffffffffffffffffffffffffffffffffffffffff1673ffffffffffffffffffffffffffffffffffffffff1663ede4edd0836040518263ffffffff1660e01b8152600401612a1191906146ec565b602060405180830381600087803b158015612a2b57600080fd5b505af1158015612a3f573d6000803e3d6000fd5b505050506040513d601f19601f82011682018060405250810190612a639190613fb3565b905060008114612aa8576040517f08c379a0000000000000000000000000000000000000000000000000000000008152600401612a9f90614922565b60405180910390fd5b5050565b60008082905060008173ffffffffffffffffffffffffffffffffffffffff1663bd6d894d6040518163ffffffff1660e01b8152600401602060405180830381600087803b158015612afc57600080fd5b505af1158015612b10573d6000803e3d6000fd5b505050506040513d601f19601f82011682018060405250810190612b349190613fb3565b90508092505050919050565b600260009054906101000a900473ffffffffffffffffffffffffffffffffffffffff1673ffffffffffffffffffffffffffffffffffffffff16634e4d9fea826040518263ffffffff1660e01b81526004016000604051808303818588803b158015612baa57600080fd5b505af1158015612bbe573d6000803e3d6000fd5b505050505050565b60008054906101000a900473ffffffffffffffffffffffffffffffffffffffff1673ffffffffffffffffffffffffffffffffffffffff1663e9af0292306040518263ffffffff1660e01b8152600401612c1f91906146ec565b600060405180830381600087803b158015612c3957600080fd5b505af1158015612c4d573d6000803e3d6000fd5b50505050565b60008082905060008173ffffffffffffffffffffffffffffffffffffffff16633af9e669306040518263ffffffff1660e01b8152600401612c9491906146ec565b602060405180830381600087803b158015612cae57600080fd5b505af1158015612cc2573d6000803e3d6000fd5b505050506040513d601f19601f82011682018060405250810190612ce69190613fb3565b90508092505050919050565b600082905060008173ffffffffffffffffffffffffffffffffffffffff1663852a12e3846040518263ffffffff1660e01b8152600401612d329190614ae2565b602060405180830381600087803b158015612d4c57600080fd5b505af1158015612d60573d6000803e3d6000fd5b505050506040513d601f19601f82011682018060405250810190612d849190613fb3565b905060008114612dc9576040517f08c379a0000000000000000000000000000000000000000000000000000000008152600401612dc090614942565b60405180910390fd5b50505050565b60008060008060008054906101000a900473ffffffffffffffffffffffffffffffffffffffff1673ffffffffffffffffffffffffffffffffffffffff16635ec88c79306040518263ffffffff1660e01b8152600401612e2e91906146ec565b60606040518083038186803b158015612e4657600080fd5b505afa158015612e5a573d6000803e3d6000fd5b505050506040513d601f19601f82011682018060405250810190612e7e9190613fdc565b92509250925060008314612ec7576040517f08c379a0000000000000000000000000000000000000000000000000000000008152600401612ebe90614982565b60405180910390fd5b60008114612f0a576040517f08c379a0000000000000000000000000000000000000000000000000000000008152600401612f0190614aa2565b60405180910390fd5b60008211612f4d576040517f08c379a0000000000000000000000000000000000000000000000000000000008152600401612f44906149a2565b60405180910390fd5b6000612f5886612451565b90506000818481612f6557fe5b0490508095505050505050919050565b60008060008060008054906101000a900473ffffffffffffffffffffffffffffffffffffffff1673ffffffffffffffffffffffffffffffffffffffff16635ec88c79306040518263ffffffff1660e01b8152600401612fd491906146ec565b60606040518083038186803b158015612fec57600080fd5b505afa158015613000573d6000803e3d6000fd5b505050506040513d601f19601f820116820180604052508101906130249190613fdc565b9250925092506000831461306d576040517f08c379a000000000000000000000000000000000000000000000000000000000815260040161306490614ac2565b60405180910390fd5b600081146130b0576040517f08c379a00000000000000000000000000000000000000000000000000000000081526004016130a790614aa2565b60405180910390fd5b600082116130f3576040517f08c379a00000000000000000000000000000000000000000000000000000000081526004016130ea90614a42565b60405180910390fd5b81935050505090565b600082905060008173ffffffffffffffffffffffffffffffffffffffff1663c5ebeaec846040518263ffffffff1660e01b815260040161313c9190614ae2565b602060405180830381600087803b15801561315657600080fd5b505af115801561316a573d6000803e3d6000fd5b505050506040513d601f19601f8201168201806040525081019061318e9190613fb3565b9050600081146131d3576040517f08c379a00000000000000000000000000000000000000000000000000000000081526004016131ca90614962565b60405180910390fd5b50505050565b6000600260009054906101000a900473ffffffffffffffffffffffffffffffffffffffff1673ffffffffffffffffffffffffffffffffffffffff16633af9e669306040518263ffffffff1660e01b815260040161323691906146ec565b602060405180830381600087803b15801561325057600080fd5b505af1158015613264573d6000803e3d6000fd5b505050506040513d601f19601f820116820180604052508101906132889190613fb3565b905090565b600260009054906101000a900473ffffffffffffffffffffffffffffffffffffffff1673ffffffffffffffffffffffffffffffffffffffff1663852a12e3826040518263ffffffff1660e01b81526004016132e89190614ae2565b602060405180830381600087803b15801561330257600080fd5b505af1158015613316573d6000803e3d6000fd5b505050506040513d601f19601f8201168201806040525081019061333a9190613fb3565b5050565b600260009054906101000a900473ffffffffffffffffffffffffffffffffffffffff1673ffffffffffffffffffffffffffffffffffffffff1663c5ebeaec826040518263ffffffff1660e01b81526004016133999190614ae2565b602060405180830381600087803b1580156133b357600080fd5b505af11580156133c7573d6000803e3d6000fd5b505050506040513d601f19601f820116820180604052508101906133eb9190613fb3565b5050565b60008082905060008173ffffffffffffffffffffffffffffffffffffffff166370a08231306040518263ffffffff1660e01b815260040161343091906146ec565b60206040518083038186803b15801561344857600080fd5b505afa15801561345c573d6000803e3d6000fd5b505050506040513d601f19601f820116820180604052508101906134809190613fb3565b90508092505050919050565b6000600167ffffffffffffffff811180156134a657600080fd5b506040519080825280602002602001820160405280156134d55781602001602082028036833780820191505090505b50905081816000815181106134e657fe5b602002602001019073ffffffffffffffffffffffffffffffffffffffff16908173ffffffffffffffffffffffffffffffffffffffff168152505060008060009054906101000a900473ffffffffffffffffffffffffffffffffffffffff1673ffffffffffffffffffffffffffffffffffffffff1663c2998238836040518263ffffffff1660e01b815260040161357c91906147ab565b600060405180830381600087803b15801561359657600080fd5b505af11580156135aa573d6000803e3d6000fd5b505050506040513d6000823e3d601f19601f820116820180604052508101906135d39190613e1c565b90506000816000815181106135e457fe5b60200260200101511461362c576040517f08c379a000000000000000000000000000000000000000000000000000000000815260040161362390614a82565b60405180910390fd5b505050565b60008082905060008173ffffffffffffffffffffffffffffffffffffffff166317bfdfbc306040518263ffffffff1660e01b815260040161367291906146ec565b602060405180830381600087803b15801561368c57600080fd5b505af11580156136a0573d6000803e3d6000fd5b505050506040513d601f19601f820116820180604052508101906136c49190613fb3565b90508092505050919050565b60008173ffffffffffffffffffffffffffffffffffffffff16636f307dc36040518163ffffffff1660e01b815260040160206040518083038186803b15801561371857600080fd5b505afa15801561372c573d6000803e3d6000fd5b505050506040513d601f19601f820116820180604052508101906137509190613db7565b9050919050565b600082905060008173ffffffffffffffffffffffffffffffffffffffff16636f307dc36040518163ffffffff1660e01b815260040160206040518083038186803b1580156137a457600080fd5b505afa1580156137b8573d6000803e3d6000fd5b505050506040513d601f19601f820116820180604052508101906137dc9190613db7565b905060008190508073ffffffffffffffffffffffffffffffffffffffff1663095ea7b386866040518363ffffffff1660e01b815260040161381e929190614782565b602060405180830381600087803b15801561383857600080fd5b505af115801561384c573d6000803e3d6000fd5b505050506040513d601f19601f820116820180604052508101906138709190613e5d565b5060008373ffffffffffffffffffffffffffffffffffffffff16630e752702866040518263ffffffff1660e01b81526004016138ac9190614ae2565b602060405180830381600087803b1580156138c657600080fd5b505af11580156138da573d6000803e3d6000fd5b505050506040513d601f19601f820116820180604052508101906138fe9190613fb3565b905060008114613943576040517f08c379a000000000000000000000000000000000000000000000000000000000815260040161393a90614a22565b60405180910390fd5b505050505050565b600260009054906101000a900473ffffffffffffffffffffffffffffffffffffffff1673ffffffffffffffffffffffffffffffffffffffff16631249c58b826040518263ffffffff1660e01b81526004016000604051808303818588803b1580156139b557600080fd5b505af11580156139c9573d6000803e3d6000fd5b505050505050565b600082905060008173ffffffffffffffffffffffffffffffffffffffff16636f307dc36040518163ffffffff1660e01b815260040160206040518083038186803b158015613a1e57600080fd5b505afa158015613a32573d6000803e3d6000fd5b505050506040513d601f19601f82011682018060405250810190613a569190613db7565b905060008190508073ffffffffffffffffffffffffffffffffffffffff1663095ea7b386866040518363ffffffff1660e01b8152600401613a98929190614782565b602060405180830381600087803b158015613ab257600080fd5b505af1158015613ac6573d6000803e3d6000fd5b505050506040513d601f19601f82011682018060405250810190613aea9190613e5d565b5060008373ffffffffffffffffffffffffffffffffffffffff1663a0712d68866040518263ffffffff1660e01b8152600401613b269190614ae2565b602060405180830381600087803b158015613b4057600080fd5b505af1158015613b54573d6000803e3d6000fd5b505050506040513d601f19601f82011682018060405250810190613b789190613fb3565b905060008114613bbd576040517f08c379a0000000000000000000000000000000000000000000000000000000008152600401613bb4906149e2565b60405180910390fd5b505050505050565b604051806040016040528060008019168152602001600073ffffffffffffffffffffffffffffffffffffffff1681525090565b6040518060c0016040528060008019168152602001600073ffffffffffffffffffffffffffffffffffffffff16815260200160008019168152602001600073ffffffffffffffffffffffffffffffffffffffff168152602001600060ff1681526020016000151581525090565b6000613c78613c7384614b2e565b614afd565b90508083825260208201905082856020860282011115613c9757600080fd5b60005b85811015613cc75781613cad8882613d64565b845260208401935060208301925050600181019050613c9a565b5050509392505050565b600081359050613ce081614d19565b92915050565b600081519050613cf581614d19565b92915050565b600082601f830112613d0c57600080fd5b8151613d1c848260208601613c65565b91505092915050565b600081519050613d3481614d30565b92915050565b600081359050613d4981614d47565b92915050565b600081359050613d5e81614d5e565b92915050565b600081519050613d7381614d5e565b92915050565b600081359050613d8881614d75565b92915050565b600060208284031215613da057600080fd5b6000613dae84828501613cd1565b91505092915050565b600060208284031215613dc957600080fd5b6000613dd784828501613ce6565b91505092915050565b60008060408385031215613df357600080fd5b6000613e0185828601613cd1565b9250506020613e1285828601613d4f565b9150509250929050565b600060208284031215613e2e57600080fd5b600082015167ffffffffffffffff811115613e4857600080fd5b613e5484828501613cfb565b91505092915050565b600060208284031215613e6f57600080fd5b6000613e7d84828501613d25565b91505092915050565b600060208284031215613e9857600080fd5b6000613ea684828501613d3a565b91505092915050565b60008060408385031215613ec257600080fd5b6000613ed085828601613d3a565b9250506020613ee185828601613cd1565b9150509250929050565b60008060008060808587031215613f0157600080fd5b6000613f0f87828801613d3a565b9450506020613f2087828801613cd1565b9350506040613f3187828801613d3a565b9250506060613f4287828801613d79565b91505092959194509250565b60008060408385031215613f6157600080fd5b6000613f6f85828601613d3a565b9250506020613f8085828601613d4f565b9150509250929050565b600060208284031215613f9c57600080fd5b6000613faa84828501613d4f565b91505092915050565b600060208284031215613fc557600080fd5b6000613fd384828501613d64565b91505092915050565b600080600060608486031215613ff157600080fd5b6000613fff86828701613d64565b935050602061401086828701613d64565b925050604061402186828701613d64565b9150509250925092565b60006140378383614082565b60208301905092915050565b600061404f8383614615565b60408301905092915050565b60006140678383614644565b60c08301905092915050565b61407c81614c75565b82525050565b61408b81614c16565b82525050565b61409a81614c16565b82525050565b60006140ab82614b8a565b6140b58185614bd2565b93506140c083614b5a565b8060005b838110156140f15781516140d8888261402b565b97506140e383614bab565b9250506001810190506140c4565b5085935050505092915050565b600061410982614b95565b6141138185614be3565b935061411e83614b6a565b8060005b8381101561414f5781516141368882614043565b975061414183614bb8565b925050600181019050614122565b5085935050505092915050565b600061416782614ba0565b6141718185614bf4565b935061417c83614b7a565b8060005b838110156141ad578151614194888261405b565b975061419f83614bc5565b925050600181019050614180565b5085935050505092915050565b6141c381614c28565b82525050565b6141d281614c28565b82525050565b6141e181614c34565b82525050565b6141f081614c34565b82525050565b6141ff81614c87565b82525050565b61420e81614cab565b82525050565b61421d81614ccf565b82525050565b6000614230602083614c05565b91507f436f6d7074726f6c6c65722e657869744d61726b65742829206661696c65642e6000830152602082019050919050565b6000614270601783614c05565b91507f63546f6b656e2e72656465656d2829206661696c65642e0000000000000000006000830152602082019050919050565b60006142b0601783614c05565b91507f63546f6b656e2e626f72726f772829206661696c65642e0000000000000000006000830152602082019050919050565b60006142f0602983614c05565b91507f436f6d7074726f6c6c65722e6765744163636f756e744c69717569646974792860008301527f29206661696c65642e00000000000000000000000000000000000000000000006020830152604082019050919050565b6000614356601d83614c05565b91507f6163636f756e74206861732065786365737320636f6c6c61746572616c0000006000830152602082019050919050565b6000614396601283614c05565b91507f6e6f7420656e6f7567682062616c616e636500000000000000000000000000006000830152602082019050919050565b60006143d6601583614c05565b91507f63546f6b656e2e6d696e742829206661696c65642e00000000000000000000006000830152602082019050919050565b6000614416601983614c05565b91507f6d7573742073657420636f6c6c61746572616c206669727374000000000000006000830152602082019050919050565b6000614456601c83614c05565b91507f63546f6b656e2e7265706179426f72726f772829206661696c65642e000000006000830152602082019050919050565b6000614496602083614c05565b91507f6163636f756e7420646f6573206e6f74206861766520636f6c6c61746572616c6000830152602082019050919050565b60006144d6600a83614c05565b91507f6f6e6c79206f776e6572000000000000000000000000000000000000000000006000830152602082019050919050565b6000614516602283614c05565b91507f436f6d7074726f6c6c65722e656e7465724d61726b6574732829206661696c6560008301527f642e0000000000000000000000000000000000000000000000000000000000006020830152604082019050919050565b600061457c601283614c05565b91507f6163636f756e7420756e646572776174657200000000000000000000000000006000830152602082019050919050565b60006145bc602983614c05565b91507f636f6d7074726f6c6c6572236765744163636f756e744c69717569646974792860008301527f29206661696c65642e00000000000000000000000000000000000000000000006020830152604082019050919050565b60408201600082015161462b60008501826141d8565b50602082015161463e6020850182614082565b50505050565b60c08201600082015161465a60008501826141d8565b50602082015161466d6020850182614082565b50604082015161468060408501826141d8565b5060608201516146936060850182614082565b5060808201516146a660808501826146ce565b5060a08201516146b960a08501826141ba565b50505050565b6146c881614c5e565b82525050565b6146d781614c68565b82525050565b6146e681614c68565b82525050565b60006020820190506147016000830184614091565b92915050565b600060208201905061471c6000830184614073565b92915050565b60006060820190506147376000830186614073565b6147446020830185614073565b61475160408301846146bf565b949350505050565b600060408201905061476e6000830185614073565b61477b60208301846146bf565b9392505050565b60006040820190506147976000830185614091565b6147a460208301846146bf565b9392505050565b600060208201905081810360008301526147c581846140a0565b905092915050565b600060208201905081810360008301526147e781846140fe565b905092915050565b60006020820190508181036000830152614809818461415c565b905092915050565b600060208201905061482660008301846141c9565b92915050565b600060208201905061484160008301846141e7565b92915050565b600060408201905061485c60008301856141e7565b6148696020830184614091565b9392505050565b600060c08201905061488560008301896141e7565b6148926020830188614091565b61489f60408301876141e7565b6148ac6060830186614091565b6148b960808301856146dd565b6148c660a08301846141c9565b979650505050505050565b60006020820190506148e660008301846141f6565b92915050565b60006020820190506149016000830184614205565b92915050565b600060208201905061491c6000830184614214565b92915050565b6000602082019050818103600083015261493b81614223565b9050919050565b6000602082019050818103600083015261495b81614263565b9050919050565b6000602082019050818103600083015261497b816142a3565b9050919050565b6000602082019050818103600083015261499b816142e3565b9050919050565b600060208201905081810360008301526149bb81614349565b9050919050565b600060208201905081810360008301526149db81614389565b9050919050565b600060208201905081810360008301526149fb816143c9565b9050919050565b60006020820190508181036000830152614a1b81614409565b9050919050565b60006020820190508181036000830152614a3b81614449565b9050919050565b60006020820190508181036000830152614a5b81614489565b9050919050565b60006020820190508181036000830152614a7b816144c9565b9050919050565b60006020820190508181036000830152614a9b81614509565b9050919050565b60006020820190508181036000830152614abb8161456f565b9050919050565b60006020820190508181036000830152614adb816145af565b9050919050565b6000602082019050614af760008301846146bf565b92915050565b6000604051905081810181811067ffffffffffffffff82111715614b2457614b23614d17565b5b8060405250919050565b600067ffffffffffffffff821115614b4957614b48614d17565b5b602082029050602081019050919050565b6000819050602082019050919050565b6000819050602082019050919050565b6000819050602082019050919050565b600081519050919050565b600081519050919050565b600081519050919050565b6000602082019050919050565b6000602082019050919050565b6000602082019050919050565b600082825260208201905092915050565b600082825260208201905092915050565b600082825260208201905092915050565b600082825260208201905092915050565b6000614c2182614c3e565b9050919050565b60008115159050919050565b6000819050919050565b600073ffffffffffffffffffffffffffffffffffffffff82169050919050565b6000819050919050565b600060ff82169050919050565b6000614c8082614cf3565b9050919050565b6000614c9282614c99565b9050919050565b6000614ca482614c3e565b9050919050565b6000614cb682614cbd565b9050919050565b6000614cc882614c3e565b9050919050565b6000614cda82614ce1565b9050919050565b6000614cec82614c3e565b9050919050565b6000614cfe82614d05565b9050919050565b6000614d1082614c3e565b9050919050565bfe5b614d2281614c16565b8114614d2d57600080fd5b50565b614d3981614c28565b8114614d4457600080fd5b50565b614d5081614c34565b8114614d5b57600080fd5b50565b614d6781614c5e565b8114614d7257600080fd5b50565b614d7e81614c68565b8114614d8957600080fd5b5056fea2646970667358221220fd8b2b059213275525c9091c0ef7794e5486fe259b5a5bd5bd9966b1565ddc8364736f6c63430007060033",
  "immutableReferences": {},
  "source": "// SPDX-License-Identifier: MIT\npragma solidity ^0.7.3;\npragma experimental ABIEncoderV2;\n\nimport \"@openzeppelin/contracts/token/ERC20/IERC20.sol\";\nimport \"./Compound.sol\";\n\ncontract CompoundIntegration is Compound {\n    struct Token {\n        bytes32 ticker;\n        address tokenAddress;\n    }\n\n    struct cToken {\n        bytes32 cTokenTicker;\n        address cTokenAddress;\n        bytes32 underlyingTicker;\n        address underlyingAddress;\n        uint8 underlyingDecimals;\n        bool collateral;\n    }\n\n    mapping(bytes32 => Token) public tokens;\n    mapping(bytes32 => cToken) public cTokens;\n    bytes32[] public tokenList;\n    bytes32[] public cTokenList;\n\n    address public owner;\n\n    mapping(bytes32 => bool) public isCollateral;\n    uint256 public collateralCount;\n\n    constructor(\n        address _comptroller,\n        address _priceOracle,\n        address _cETHAddress\n    ) Compound(_comptroller, _priceOracle, _cETHAddress) {\n        owner = msg.sender;\n    }\n\n    modifier onlyOwner() {\n        require(msg.sender == owner, \"only owner\");\n        _;\n    }\n\n    modifier ownCollateral() {\n        require(collateralCount > 0, \"must set collateral first\");\n        _;\n    }\n\n    function addToken(bytes32 ticker, address tokenAddress)\n        external\n        onlyOwner()\n    {\n        tokens[ticker] = Token(ticker, tokenAddress);\n        tokenList.push(ticker);\n    }\n\n    function addCToken(\n        bytes32 cTokenTicker,\n        address cTokenAddress,\n        bytes32 underlyingTicker,\n        uint8 underlyingDecimals\n    ) external onlyOwner() {\n        address underlyingAddress = CTokenInterface(cTokenAddress).underlying();\n\n        cTokens[cTokenTicker] = cToken(\n            cTokenTicker,\n            cTokenAddress,\n            underlyingTicker,\n            underlyingAddress,\n            underlyingDecimals,\n            false\n        );\n        cTokenList.push(cTokenTicker);\n    }\n\n    function getTokens() external view returns (Token[] memory) {\n        Token[] memory _tokens = new Token[](tokenList.length);\n        for (uint256 i = 0; i < tokenList.length; i++) {\n            _tokens[i] = Token(\n                tokens[tokenList[i]].ticker,\n                tokens[tokenList[i]].tokenAddress\n            );\n        }\n\n        return _tokens;\n    }\n\n    function getCTokens() external view returns (cToken[] memory) {\n        cToken[] memory _cTokens = new cToken[](cTokenList.length);\n        for (uint256 i = 0; i < cTokenList.length; i++) {\n            _cTokens[i] = cToken(\n                cTokens[cTokenList[i]].cTokenTicker,\n                cTokens[cTokenList[i]].cTokenAddress,\n                cTokens[cTokenList[i]].underlyingTicker,\n                cTokens[cTokenList[i]].underlyingAddress,\n                cTokens[cTokenList[i]].underlyingDecimals,\n                cTokens[cTokenList[i]].collateral\n            );\n        }\n\n        return _cTokens;\n    }\n\n    function deposit(bytes32 ticker, uint256 amount) external {\n        IERC20 tokenInstance = IERC20(tokens[ticker].tokenAddress);\n        tokenInstance.transferFrom(msg.sender, address(this), amount);\n    }\n\n    function depositCToken(bytes32 cTokenTicker, uint256 amount) external {\n        CTokenInterface cTokenInstance =\n            CTokenInterface(cTokens[cTokenTicker].cTokenAddress);\n        cTokenInstance.transferFrom(msg.sender, address(this), amount);\n    }\n\n    function withdraw(bytes32 ticker, uint256 amount) external onlyOwner() {\n        IERC20 tokenInstance = IERC20(tokens[ticker].tokenAddress);\n        uint256 balance = tokenInstance.balanceOf(address(this));\n        require(balance >= amount, \"not enough balance\");\n\n        tokenInstance.transfer(msg.sender, amount);\n    }\n\n    function withdrawCToken(bytes32 cTokenTicker, uint256 amount)\n        external\n        onlyOwner()\n    {\n        CTokenInterface cTokenInstance =\n            CTokenInterface(cTokens[cTokenTicker].cTokenAddress);\n        uint256 balance = cTokenInstance.balanceOf(address(this));\n        require(balance >= amount, \"not enough balance\");\n\n        cTokenInstance.transfer(msg.sender, amount);\n    }\n\n    function withdrawETH(uint256 amount) external onlyOwner() {\n        require(address(this).balance >= amount, \"not enough balance\");\n\n        address payable recipient = msg.sender;\n        recipient.transfer(amount);\n    }\n\n    function supply(address cTokenAddress, uint256 underlyingAmount)\n        external\n        onlyOwner()\n    {\n        address underlyingAddress = _getUnderlyingAddress(cTokenAddress);\n        IERC20 tokenInstance = IERC20(underlyingAddress);\n        uint256 balance = tokenInstance.balanceOf(address(this));\n        require(balance >= underlyingAmount, \"not enough balance\");\n\n        _supply(cTokenAddress, underlyingAmount);\n    }\n\n    function supplyETH(uint256 underlyingAmount) external onlyOwner() {\n        require(\n            address(this).balance >= underlyingAmount,\n            \"not enough balance\"\n        );\n\n        _supplyETH(underlyingAmount);\n    }\n\n    function redeem(address cTokenAddress, uint256 redeemAmount)\n        external\n        onlyOwner()\n    {\n        uint256 underlyingBalance = _getUnderlyingBalance(cTokenAddress);\n        require(underlyingBalance >= redeemAmount, \"not enough balance\");\n\n        _redeem(cTokenAddress, redeemAmount);\n    }\n\n    function redeemETH(uint256 redeemAmount) external onlyOwner() {\n        uint256 underlyingBalance = _getUnderlyingETHBalance();\n        require(underlyingBalance >= redeemAmount, \"not enough balance\");\n\n        _redeemETH(redeemAmount);\n    }\n\n    function borrow(address cTokenAddress, uint256 borrowAmount)\n        external\n        onlyOwner()\n        ownCollateral()\n    {\n        _borrow(cTokenAddress, borrowAmount);\n    }\n\n    function borrowETH(uint256 borrowAmount) external ownCollateral() {\n        _borrowETH(borrowAmount);\n    }\n\n    function repayBorrow(address cTokenAddress, uint256 underlyingAmount)\n        external\n    {\n        address underlyingAddress = _getUnderlyingAddress(cTokenAddress);\n        IERC20 tokenInstance = IERC20(underlyingAddress);\n        uint256 balance = tokenInstance.balanceOf(address(this));\n        require(balance >= underlyingAmount, \"not enough balance\");\n\n        _repayBorrow(cTokenAddress, underlyingAmount);\n    }\n\n    function repayBorrowETH(uint256 underlyingAmount) external {\n        require(\n            address(this).balance >= underlyingAmount,\n            \"not enough balance\"\n        );\n\n        _repayBorrowETH(underlyingAmount);\n    }\n\n    function enterMarket(bytes32 cTokenTicker) external onlyOwner() {\n        uint256 supplyBalance =\n            _getSupplyBalance(cTokens[cTokenTicker].cTokenAddress);\n        require(supplyBalance > 0, \"not enough balance\");\n\n        _enterMarket(cTokens[cTokenTicker].cTokenAddress);\n\n        cTokens[cTokenTicker].collateral = true;\n        isCollateral[cTokenTicker] = true;\n        collateralCount++;\n    }\n\n    function exitMarket(bytes32 cTokenTicker) external onlyOwner() {\n        _exitMarket(cTokens[cTokenTicker].cTokenAddress);\n\n        cTokens[cTokenTicker].collateral = false;\n        isCollateral[cTokenTicker] = false;\n        collateralCount--;\n    }\n\n    function claimComp() public onlyOwner() {\n        _claimComp();\n    }\n\n    function withdrawComp(uint256 amount) external {\n        uint256 compBalance = _getCompBalance();\n        require(compBalance >= amount, \"not enough balance\");\n\n        address compAddress = _getCompAddress();\n        IERC20 compToken = IERC20(compAddress);\n        compToken.transfer(msg.sender, amount);\n    }\n\n    function getCompBalance() external view returns (uint256) {\n        return _getCompBalance();\n    }\n\n    function getMaxBorrow(bytes32 cTokenTicker)\n        external\n        view\n        returns (uint256)\n    {\n        return _getMaxBorrow(cTokens[cTokenTicker].cTokenAddress);\n    }\n\n    function getBorrowLimit() external view returns (uint256) {\n        return _getBorrowLimit();\n    }\n\n    function getSupplyBalance(bytes32 cTokenTicker)\n        external\n        view\n        returns (uint256)\n    {\n        return _getSupplyBalance(cTokens[cTokenTicker].cTokenAddress);\n    }\n\n    function getBorrowBalance(bytes32 cTokenTicker) external returns (uint256) {\n        return _getBorrowBalance(cTokens[cTokenTicker].cTokenAddress);\n    }\n\n    function getExchangeRate(bytes32 cTokenTicker) external returns (uint256) {\n        return _getExchangeRate(cTokens[cTokenTicker].cTokenAddress);\n    }\n\n    function getUnderlyingPrice(bytes32 cTokenTicker)\n        external\n        view\n        returns (uint256)\n    {\n        return _getUnderlyingPrice(cTokens[cTokenTicker].cTokenAddress);\n    }\n\n    function getUnderlyingBalance(bytes32 cTokenTicker)\n        external\n        returns (uint256)\n    {\n        return _getUnderlyingBalance(cTokens[cTokenTicker].cTokenAddress);\n    }\n\n    receive() external payable {}\n}\n",
  "sourcePath": "/Users/ryan/Desktop/Projects/compound/contracts/CompoundIntegration.sol",
  "compiler": {
    "name": "solc",
    "version": "0.7.6+commit.7338295f.Emscripten.clang"
  },
  "schemaVersion": "3.3.4",
  "updatedAt": "2021-04-16T06:45:47.997Z",
  "networkType": "ethereum",
  "devdoc": {
    "kind": "dev",
    "methods": {},
    "version": 1
  },
  "userdoc": {
    "kind": "user",
    "methods": {},
    "version": 1
  }
}