{
  "contractName": "Compound",
  "abi": [
    {
      "inputs": [
        {
          "internalType": "address",
          "name": "_comptroller",
          "type": "address"
        },
        {
          "internalType": "address",
          "name": "_priceOracle",
          "type": "address"
        },
        {
          "internalType": "address",
          "name": "_cETHAddress",
          "type": "address"
        }
      ],
      "stateMutability": "nonpayable",
      "type": "constructor"
    },
    {
      "inputs": [],
      "name": "cETH",
      "outputs": [
        {
          "internalType": "contract CETHInterface",
          "name": "",
          "type": "address"
        }
      ],
      "stateMutability": "view",
      "type": "function"
    },
    {
      "inputs": [],
      "name": "comptroller",
      "outputs": [
        {
          "internalType": "contract ComptrollerInterface",
          "name": "",
          "type": "address"
        }
      ],
      "stateMutability": "view",
      "type": "function"
    },
    {
      "inputs": [],
      "name": "priceOracle",
      "outputs": [
        {
          "internalType": "contract PriceOracleInterface",
          "name": "",
          "type": "address"
        }
      ],
      "stateMutability": "view",
      "type": "function"
    },
    {
      "inputs": [],
      "name": "_getCompAddress",
      "outputs": [
        {
          "internalType": "address",
          "name": "",
          "type": "address"
        }
      ],
      "stateMutability": "view",
      "type": "function"
    },
    {
      "inputs": [],
      "name": "_getCompBalance",
      "outputs": [
        {
          "internalType": "uint256",
          "name": "",
          "type": "uint256"
        }
      ],
      "stateMutability": "view",
      "type": "function"
    },
    {
      "inputs": [
        {
          "internalType": "address",
          "name": "cTokenAddress",
          "type": "address"
        }
      ],
      "name": "_getUnderlyingPrice",
      "outputs": [
        {
          "internalType": "uint256",
          "name": "",
          "type": "uint256"
        }
      ],
      "stateMutability": "view",
      "type": "function"
    }
  ],
  "bytecode": "0x608060405234801561001057600080fd5b506040516107f43803806107f483398181016040528101906100329190610111565b826000806101000a81548173ffffffffffffffffffffffffffffffffffffffff021916908373ffffffffffffffffffffffffffffffffffffffff16021790555081600160006101000a81548173ffffffffffffffffffffffffffffffffffffffff021916908373ffffffffffffffffffffffffffffffffffffffff16021790555080600260006101000a81548173ffffffffffffffffffffffffffffffffffffffff021916908373ffffffffffffffffffffffffffffffffffffffff1602179055505050506101a9565b60008151905061010b81610192565b92915050565b60008060006060848603121561012657600080fd5b6000610134868287016100fc565b9350506020610145868287016100fc565b9250506040610156868287016100fc565b9150509250925092565b600061016b82610172565b9050919050565b600073ffffffffffffffffffffffffffffffffffffffff82169050919050565b61019b81610160565b81146101a657600080fd5b50565b61063c806101b86000396000f3fe608060405234801561001057600080fd5b50600436106100625760003560e01c80632630c12f14610067578063512ed506146100855780635fe3b567146100a35780637ad3fca9146100c1578063a1b4d011146100df578063be274d32146100fd575b600080fd5b61006f61012d565b60405161007c91906104fa565b60405180910390f35b61008d610153565b60405161009a91906104a9565b60405180910390f35b6100ab6101f9565b6040516100b891906104df565b60405180910390f35b6100c961021d565b6040516100d69190610515565b60405180910390f35b6100e76102c5565b6040516100f491906104c4565b60405180910390f35b610117600480360381019061011291906103e3565b6102eb565b6040516101249190610515565b60405180910390f35b600160009054906101000a900473ffffffffffffffffffffffffffffffffffffffff1681565b60008060009054906101000a900473ffffffffffffffffffffffffffffffffffffffff1673ffffffffffffffffffffffffffffffffffffffff16639d1b5a0a6040518163ffffffff1660e01b815260040160206040518083038186803b1580156101bc57600080fd5b505afa1580156101d0573d6000803e3d6000fd5b505050506040513d601f19601f820116820180604052508101906101f4919061040c565b905090565b60008054906101000a900473ffffffffffffffffffffffffffffffffffffffff1681565b600080610228610153565b9050600081905060008173ffffffffffffffffffffffffffffffffffffffff166370a08231306040518263ffffffff1660e01b815260040161026a91906104a9565b60206040518083038186803b15801561028257600080fd5b505afa158015610296573d6000803e3d6000fd5b505050506040513d601f19601f820116820180604052508101906102ba9190610435565b905080935050505090565b600260009054906101000a900473ffffffffffffffffffffffffffffffffffffffff1681565b600080600160009054906101000a900473ffffffffffffffffffffffffffffffffffffffff1673ffffffffffffffffffffffffffffffffffffffff1663fc57d4df846040518263ffffffff1660e01b815260040161034991906104a9565b60206040518083038186803b15801561036157600080fd5b505afa158015610375573d6000803e3d6000fd5b505050506040513d601f19601f820116820180604052508101906103999190610435565b905080915050919050565b6000813590506103b3816105d8565b92915050565b6000815190506103c8816105d8565b92915050565b6000815190506103dd816105ef565b92915050565b6000602082840312156103f557600080fd5b6000610403848285016103a4565b91505092915050565b60006020828403121561041e57600080fd5b600061042c848285016103b9565b91505092915050565b60006020828403121561044757600080fd5b6000610455848285016103ce565b91505092915050565b61046781610530565b82525050565b6104768161056c565b82525050565b61048581610590565b82525050565b610494816105b4565b82525050565b6104a381610562565b82525050565b60006020820190506104be600083018461045e565b92915050565b60006020820190506104d9600083018461046d565b92915050565b60006020820190506104f4600083018461047c565b92915050565b600060208201905061050f600083018461048b565b92915050565b600060208201905061052a600083018461049a565b92915050565b600061053b82610542565b9050919050565b600073ffffffffffffffffffffffffffffffffffffffff82169050919050565b6000819050919050565b60006105778261057e565b9050919050565b600061058982610542565b9050919050565b600061059b826105a2565b9050919050565b60006105ad82610542565b9050919050565b60006105bf826105c6565b9050919050565b60006105d182610542565b9050919050565b6105e181610530565b81146105ec57600080fd5b50565b6105f881610562565b811461060357600080fd5b5056fea264697066735822122046e43932fd149c8cd7c4beef0d32eafd53b584e7128a921b1f9563a4aabcfb1764736f6c63430007060033",
  "immutableReferences": {},
  "source": "// SPDX-License-Identifier: MIT\npragma solidity ^0.7.3;\npragma experimental ABIEncoderV2;\n\nimport \"@openzeppelin/contracts/token/ERC20/IERC20.sol\";\nimport \"./CTokenInterface.sol\";\nimport \"./CETHInterface.sol\";\nimport \"./ComptrollerInterface.sol\";\nimport \"./PriceOracleInterface.sol\";\n\ncontract Compound {\n    ComptrollerInterface public comptroller;\n    PriceOracleInterface public priceOracle;\n    CETHInterface public cETH;\n\n    constructor(\n        address _comptroller,\n        address _priceOracle,\n        address _cETHAddress\n    ) {\n        comptroller = ComptrollerInterface(_comptroller);\n        priceOracle = PriceOracleInterface(_priceOracle);\n        cETH = CETHInterface(_cETHAddress);\n    }\n\n    function _supply(address cTokenAddress, uint256 underlyingAmount) internal {\n        CTokenInterface cTokenInstance = CTokenInterface(cTokenAddress);\n        address underlyingAddress = cTokenInstance.underlying();\n        IERC20 tokenInstance = IERC20(underlyingAddress);\n\n        tokenInstance.approve(cTokenAddress, underlyingAmount);\n        uint256 result = cTokenInstance.mint(underlyingAmount);\n\n        require(result == 0, \"cToken.mint() failed.\");\n    }\n\n    function _supplyETH(uint256 underlyingAmount) internal {\n        cETH.mint{value: underlyingAmount}();\n    }\n\n    function _redeem(address cTokenAddress, uint256 redeemAmount) internal {\n        CTokenInterface cTokenInstance = CTokenInterface(cTokenAddress);\n        uint256 result = cTokenInstance.redeemUnderlying(redeemAmount);\n\n        require(result == 0, \"cToken.redeem() failed.\");\n    }\n\n    function _redeemETH(uint256 redeemAmount) internal {\n        cETH.redeemUnderlying(redeemAmount);\n    }\n\n    function _borrow(address cTokenAddress, uint256 borrowAmount) internal {\n        CTokenInterface cTokenInstance = CTokenInterface(cTokenAddress);\n        uint256 result = cTokenInstance.borrow(borrowAmount);\n\n        require(result == 0, \"cToken.borrow() failed.\");\n    }\n\n    function _borrowETH(uint256 borrowAmount) internal {\n        cETH.borrow(borrowAmount);\n    }\n\n    function _repayBorrow(address cTokenAddress, uint256 underlyingAmount)\n        internal\n    {\n        CTokenInterface cTokenInstance = CTokenInterface(cTokenAddress);\n        address underlyingAddress = cTokenInstance.underlying();\n        IERC20 tokenInstance = IERC20(underlyingAddress);\n        tokenInstance.approve(cTokenAddress, underlyingAmount);\n        uint256 result = cTokenInstance.repayBorrow(underlyingAmount);\n\n        require(result == 0, \"cToken.repayBorrow() failed.\");\n    }\n\n    function _repayBorrowETH(uint256 underlyingAmount) internal {\n        cETH.repayBorrow{value: underlyingAmount}();\n    }\n\n    function _enterMarket(address cTokenAddress) internal {\n        address[] memory markets = new address[](1);\n        markets[0] = cTokenAddress;\n        uint256[] memory results = comptroller.enterMarkets(markets);\n\n        require(results[0] == 0, \"Comptroller.enterMarkets() failed.\");\n    }\n\n    function _exitMarket(address cTokenAddress) internal {\n        uint256 result = comptroller.exitMarket(cTokenAddress);\n\n        require(result == 0, \"Comptroller.exitMarket() failed.\");\n    }\n\n    function _claimComp() internal {\n        comptroller.claimComp(address(this));\n    }\n\n    function _getCompAddress() public view returns (address) {\n        return comptroller.getCompAddress();\n    }\n\n    function _getCompBalance() public view returns (uint256) {\n        address compAddress = _getCompAddress();\n        IERC20 compToken = IERC20(compAddress);\n        uint256 compBalance = compToken.balanceOf(address(this));\n\n        return compBalance;\n    }\n\n    function _getMaxBorrow(address cTokenAddress)\n        internal\n        view\n        returns (uint256)\n    {\n        (uint256 error, uint256 liquidity, uint256 shortfall) =\n            comptroller.getAccountLiquidity(address(this));\n\n        require(error == 0, \"Comptroller.getAccountLiquidity() failed.\");\n        require(shortfall == 0, \"account underwater\");\n        require(liquidity > 0, \"account has excess collateral\");\n\n        uint256 underlyingPrice = _getUnderlyingPrice(cTokenAddress);\n        uint256 maxBorrowUnderlying = liquidity / underlyingPrice;\n\n        return maxBorrowUnderlying;\n    }\n\n    function _getBorrowLimit() internal view returns (uint256) {\n        (uint256 result, uint256 liquidity, uint256 shortfall) =\n            comptroller.getAccountLiquidity(address(this));\n        require(result == 0, \"comptroller#getAccountLiquidity() failed.\");\n        require(shortfall == 0, \"account underwater\");\n        require(liquidity > 0, \"account does not have collateral\");\n\n        return liquidity;\n    }\n\n    function _getSupplyBalance(address cTokenAddress)\n        internal\n        view\n        returns (uint256)\n    {\n        CTokenInterface cTokenInstance = CTokenInterface(cTokenAddress);\n        uint256 supplyBalance = cTokenInstance.balanceOf(address(this));\n\n        return supplyBalance;\n    }\n\n    function _getBorrowBalance(address cTokenAddress)\n        internal\n        returns (uint256)\n    {\n        CTokenInterface cTokenInstance = CTokenInterface(cTokenAddress);\n        uint256 borrowBalance =\n            cTokenInstance.borrowBalanceCurrent(address(this));\n\n        return borrowBalance;\n    }\n\n    function _getExchangeRate(address cTokenAddress)\n        internal\n        returns (uint256)\n    {\n        CTokenInterface cTokenInstance = CTokenInterface(cTokenAddress);\n        uint256 exchangeRate = cTokenInstance.exchangeRateCurrent();\n\n        return exchangeRate;\n    }\n\n    function _getUnderlyingAddress(address cTokenAddress)\n        internal\n        view\n        returns (address)\n    {\n        return CTokenInterface(cTokenAddress).underlying();\n    }\n\n    function _getUnderlyingPrice(address cTokenAddress)\n        public\n        view\n        returns (uint256)\n    {\n        uint256 underlyingPrice = priceOracle.getUnderlyingPrice(cTokenAddress);\n\n        return underlyingPrice;\n    }\n\n    function _getUnderlyingBalance(address cTokenAddress)\n        internal\n        returns (uint256)\n    {\n        CTokenInterface cTokenInstance = CTokenInterface(cTokenAddress);\n        uint256 underlyingBalance =\n            cTokenInstance.balanceOfUnderlying(address(this));\n\n        return underlyingBalance;\n    }\n\n    function _getUnderlyingETHBalance() internal returns (uint256) {\n        return cETH.balanceOfUnderlying(address(this));\n    }\n}\n",
  "sourcePath": "/Users/ryan/Desktop/Projects/compound/contracts/Compound.sol",
  "compiler": {
    "name": "solc",
    "version": "0.7.6+commit.7338295f.Emscripten.clang"
  },
  "schemaVersion": "3.3.4",
  "updatedAt": "2021-04-16T06:41:45.212Z",
  "devdoc": {
    "kind": "dev",
    "methods": {},
    "version": 1
  },
  "userdoc": {
    "kind": "user",
    "methods": {},
    "version": 1
  }
}