{
  "contractName": "CompoundIntegration",
  "abi": [
    {
      "inputs": [
        {
          "internalType": "address",
          "name": "_comptroller",
          "type": "address"
        },
        {
          "internalType": "address",
          "name": "_priceOracle",
          "type": "address"
        },
        {
          "internalType": "address",
          "name": "_cETHAddress",
          "type": "address"
        }
      ],
      "stateMutability": "nonpayable",
      "type": "constructor"
    },
    {
      "inputs": [],
      "name": "_getCompAddress",
      "outputs": [
        {
          "internalType": "address",
          "name": "",
          "type": "address"
        }
      ],
      "stateMutability": "view",
      "type": "function",
      "constant": true
    },
    {
      "inputs": [],
      "name": "_getCompBalance",
      "outputs": [
        {
          "internalType": "uint256",
          "name": "",
          "type": "uint256"
        }
      ],
      "stateMutability": "view",
      "type": "function",
      "constant": true
    },
    {
      "inputs": [
        {
          "internalType": "address",
          "name": "cTokenAddress",
          "type": "address"
        }
      ],
      "name": "_getUnderlyingPrice",
      "outputs": [
        {
          "internalType": "uint256",
          "name": "",
          "type": "uint256"
        }
      ],
      "stateMutability": "view",
      "type": "function",
      "constant": true
    },
    {
      "inputs": [],
      "name": "cETH",
      "outputs": [
        {
          "internalType": "contract CETHInterface",
          "name": "",
          "type": "address"
        }
      ],
      "stateMutability": "view",
      "type": "function",
      "constant": true
    },
    {
      "inputs": [
        {
          "internalType": "uint256",
          "name": "",
          "type": "uint256"
        }
      ],
      "name": "cTokenList",
      "outputs": [
        {
          "internalType": "bytes32",
          "name": "",
          "type": "bytes32"
        }
      ],
      "stateMutability": "view",
      "type": "function",
      "constant": true
    },
    {
      "inputs": [
        {
          "internalType": "bytes32",
          "name": "",
          "type": "bytes32"
        }
      ],
      "name": "cTokens",
      "outputs": [
        {
          "internalType": "bytes32",
          "name": "cTokenTicker",
          "type": "bytes32"
        },
        {
          "internalType": "address",
          "name": "cTokenAddress",
          "type": "address"
        },
        {
          "internalType": "bytes32",
          "name": "underlyingTicker",
          "type": "bytes32"
        },
        {
          "internalType": "address",
          "name": "underlyingAddress",
          "type": "address"
        },
        {
          "internalType": "uint8",
          "name": "underlyingDecimals",
          "type": "uint8"
        },
        {
          "internalType": "bool",
          "name": "collateral",
          "type": "bool"
        }
      ],
      "stateMutability": "view",
      "type": "function",
      "constant": true
    },
    {
      "inputs": [],
      "name": "collateralCount",
      "outputs": [
        {
          "internalType": "uint256",
          "name": "",
          "type": "uint256"
        }
      ],
      "stateMutability": "view",
      "type": "function",
      "constant": true
    },
    {
      "inputs": [],
      "name": "comptroller",
      "outputs": [
        {
          "internalType": "contract ComptrollerInterface",
          "name": "",
          "type": "address"
        }
      ],
      "stateMutability": "view",
      "type": "function",
      "constant": true
    },
    {
      "inputs": [
        {
          "internalType": "bytes32",
          "name": "",
          "type": "bytes32"
        }
      ],
      "name": "isCollateral",
      "outputs": [
        {
          "internalType": "bool",
          "name": "",
          "type": "bool"
        }
      ],
      "stateMutability": "view",
      "type": "function",
      "constant": true
    },
    {
      "inputs": [],
      "name": "owner",
      "outputs": [
        {
          "internalType": "address",
          "name": "",
          "type": "address"
        }
      ],
      "stateMutability": "view",
      "type": "function",
      "constant": true
    },
    {
      "inputs": [],
      "name": "priceOracle",
      "outputs": [
        {
          "internalType": "contract PriceOracleInterface",
          "name": "",
          "type": "address"
        }
      ],
      "stateMutability": "view",
      "type": "function",
      "constant": true
    },
    {
      "inputs": [
        {
          "internalType": "uint256",
          "name": "",
          "type": "uint256"
        }
      ],
      "name": "tokenList",
      "outputs": [
        {
          "internalType": "bytes32",
          "name": "",
          "type": "bytes32"
        }
      ],
      "stateMutability": "view",
      "type": "function",
      "constant": true
    },
    {
      "inputs": [
        {
          "internalType": "bytes32",
          "name": "",
          "type": "bytes32"
        }
      ],
      "name": "tokens",
      "outputs": [
        {
          "internalType": "bytes32",
          "name": "ticker",
          "type": "bytes32"
        },
        {
          "internalType": "address",
          "name": "tokenAddress",
          "type": "address"
        }
      ],
      "stateMutability": "view",
      "type": "function",
      "constant": true
    },
    {
      "stateMutability": "payable",
      "type": "receive",
      "payable": true
    },
    {
      "inputs": [
        {
          "internalType": "bytes32",
          "name": "ticker",
          "type": "bytes32"
        },
        {
          "internalType": "address",
          "name": "tokenAddress",
          "type": "address"
        }
      ],
      "name": "addToken",
      "outputs": [],
      "stateMutability": "nonpayable",
      "type": "function"
    },
    {
      "inputs": [
        {
          "internalType": "bytes32",
          "name": "cTokenTicker",
          "type": "bytes32"
        },
        {
          "internalType": "address",
          "name": "cTokenAddress",
          "type": "address"
        },
        {
          "internalType": "bytes32",
          "name": "underlyingTicker",
          "type": "bytes32"
        },
        {
          "internalType": "uint8",
          "name": "underlyingDecimals",
          "type": "uint8"
        }
      ],
      "name": "addCToken",
      "outputs": [],
      "stateMutability": "nonpayable",
      "type": "function"
    },
    {
      "inputs": [],
      "name": "getTokens",
      "outputs": [
        {
          "components": [
            {
              "internalType": "bytes32",
              "name": "ticker",
              "type": "bytes32"
            },
            {
              "internalType": "address",
              "name": "tokenAddress",
              "type": "address"
            }
          ],
          "internalType": "struct CompoundIntegration.Token[]",
          "name": "",
          "type": "tuple[]"
        }
      ],
      "stateMutability": "view",
      "type": "function",
      "constant": true
    },
    {
      "inputs": [],
      "name": "getCTokens",
      "outputs": [
        {
          "components": [
            {
              "internalType": "bytes32",
              "name": "cTokenTicker",
              "type": "bytes32"
            },
            {
              "internalType": "address",
              "name": "cTokenAddress",
              "type": "address"
            },
            {
              "internalType": "bytes32",
              "name": "underlyingTicker",
              "type": "bytes32"
            },
            {
              "internalType": "address",
              "name": "underlyingAddress",
              "type": "address"
            },
            {
              "internalType": "uint8",
              "name": "underlyingDecimals",
              "type": "uint8"
            },
            {
              "internalType": "bool",
              "name": "collateral",
              "type": "bool"
            }
          ],
          "internalType": "struct CompoundIntegration.cToken[]",
          "name": "",
          "type": "tuple[]"
        }
      ],
      "stateMutability": "view",
      "type": "function",
      "constant": true
    },
    {
      "inputs": [
        {
          "internalType": "bytes32",
          "name": "ticker",
          "type": "bytes32"
        },
        {
          "internalType": "uint256",
          "name": "amount",
          "type": "uint256"
        }
      ],
      "name": "deposit",
      "outputs": [],
      "stateMutability": "nonpayable",
      "type": "function"
    },
    {
      "inputs": [
        {
          "internalType": "bytes32",
          "name": "cTokenTicker",
          "type": "bytes32"
        },
        {
          "internalType": "uint256",
          "name": "amount",
          "type": "uint256"
        }
      ],
      "name": "depositCToken",
      "outputs": [],
      "stateMutability": "nonpayable",
      "type": "function"
    },
    {
      "inputs": [
        {
          "internalType": "bytes32",
          "name": "ticker",
          "type": "bytes32"
        },
        {
          "internalType": "uint256",
          "name": "amount",
          "type": "uint256"
        }
      ],
      "name": "withdraw",
      "outputs": [],
      "stateMutability": "nonpayable",
      "type": "function"
    },
    {
      "inputs": [
        {
          "internalType": "bytes32",
          "name": "cTokenTicker",
          "type": "bytes32"
        },
        {
          "internalType": "uint256",
          "name": "amount",
          "type": "uint256"
        }
      ],
      "name": "withdrawCToken",
      "outputs": [],
      "stateMutability": "nonpayable",
      "type": "function"
    },
    {
      "inputs": [
        {
          "internalType": "uint256",
          "name": "amount",
          "type": "uint256"
        }
      ],
      "name": "withdrawETH",
      "outputs": [],
      "stateMutability": "nonpayable",
      "type": "function"
    },
    {
      "inputs": [
        {
          "internalType": "address",
          "name": "cTokenAddress",
          "type": "address"
        },
        {
          "internalType": "uint256",
          "name": "underlyingAmount",
          "type": "uint256"
        }
      ],
      "name": "supply",
      "outputs": [],
      "stateMutability": "nonpayable",
      "type": "function"
    },
    {
      "inputs": [
        {
          "internalType": "uint256",
          "name": "underlyingAmount",
          "type": "uint256"
        }
      ],
      "name": "supplyETH",
      "outputs": [],
      "stateMutability": "nonpayable",
      "type": "function"
    },
    {
      "inputs": [
        {
          "internalType": "address",
          "name": "cTokenAddress",
          "type": "address"
        },
        {
          "internalType": "uint256",
          "name": "redeemAmount",
          "type": "uint256"
        }
      ],
      "name": "redeem",
      "outputs": [],
      "stateMutability": "nonpayable",
      "type": "function"
    },
    {
      "inputs": [
        {
          "internalType": "uint256",
          "name": "redeemAmount",
          "type": "uint256"
        }
      ],
      "name": "redeemETH",
      "outputs": [],
      "stateMutability": "nonpayable",
      "type": "function"
    },
    {
      "inputs": [
        {
          "internalType": "address",
          "name": "cTokenAddress",
          "type": "address"
        },
        {
          "internalType": "uint256",
          "name": "borrowAmount",
          "type": "uint256"
        }
      ],
      "name": "borrow",
      "outputs": [],
      "stateMutability": "nonpayable",
      "type": "function"
    },
    {
      "inputs": [
        {
          "internalType": "uint256",
          "name": "borrowAmount",
          "type": "uint256"
        }
      ],
      "name": "borrowETH",
      "outputs": [],
      "stateMutability": "nonpayable",
      "type": "function"
    },
    {
      "inputs": [
        {
          "internalType": "address",
          "name": "cTokenAddress",
          "type": "address"
        },
        {
          "internalType": "uint256",
          "name": "underlyingAmount",
          "type": "uint256"
        }
      ],
      "name": "repayBorrow",
      "outputs": [],
      "stateMutability": "nonpayable",
      "type": "function"
    },
    {
      "inputs": [
        {
          "internalType": "uint256",
          "name": "underlyingAmount",
          "type": "uint256"
        }
      ],
      "name": "repayBorrowETH",
      "outputs": [],
      "stateMutability": "nonpayable",
      "type": "function"
    },
    {
      "inputs": [
        {
          "internalType": "bytes32",
          "name": "cTokenTicker",
          "type": "bytes32"
        }
      ],
      "name": "enterMarket",
      "outputs": [],
      "stateMutability": "nonpayable",
      "type": "function"
    },
    {
      "inputs": [
        {
          "internalType": "bytes32",
          "name": "cTokenTicker",
          "type": "bytes32"
        }
      ],
      "name": "exitMarket",
      "outputs": [],
      "stateMutability": "nonpayable",
      "type": "function"
    },
    {
      "inputs": [],
      "name": "claimComp",
      "outputs": [],
      "stateMutability": "nonpayable",
      "type": "function"
    },
    {
      "inputs": [
        {
          "internalType": "uint256",
          "name": "amount",
          "type": "uint256"
        }
      ],
      "name": "withdrawComp",
      "outputs": [],
      "stateMutability": "nonpayable",
      "type": "function"
    },
    {
      "inputs": [],
      "name": "getCompBalance",
      "outputs": [
        {
          "internalType": "uint256",
          "name": "",
          "type": "uint256"
        }
      ],
      "stateMutability": "view",
      "type": "function",
      "constant": true
    },
    {
      "inputs": [
        {
          "internalType": "bytes32",
          "name": "cTokenTicker",
          "type": "bytes32"
        }
      ],
      "name": "getMaxBorrow",
      "outputs": [
        {
          "internalType": "uint256",
          "name": "",
          "type": "uint256"
        }
      ],
      "stateMutability": "view",
      "type": "function",
      "constant": true
    },
    {
      "inputs": [],
      "name": "getBorrowLimit",
      "outputs": [
        {
          "internalType": "uint256",
          "name": "",
          "type": "uint256"
        }
      ],
      "stateMutability": "view",
      "type": "function",
      "constant": true
    },
    {
      "inputs": [
        {
          "internalType": "bytes32",
          "name": "cTokenTicker",
          "type": "bytes32"
        }
      ],
      "name": "getSupplyBalance",
      "outputs": [
        {
          "internalType": "uint256",
          "name": "",
          "type": "uint256"
        }
      ],
      "stateMutability": "view",
      "type": "function",
      "constant": true
    },
    {
      "inputs": [
        {
          "internalType": "bytes32",
          "name": "cTokenTicker",
          "type": "bytes32"
        }
      ],
      "name": "getBorrowBalance",
      "outputs": [
        {
          "internalType": "uint256",
          "name": "",
          "type": "uint256"
        }
      ],
      "stateMutability": "nonpayable",
      "type": "function"
    },
    {
      "inputs": [
        {
          "internalType": "bytes32",
          "name": "cTokenTicker",
          "type": "bytes32"
        }
      ],
      "name": "getExchangeRate",
      "outputs": [
        {
          "internalType": "uint256",
          "name": "",
          "type": "uint256"
        }
      ],
      "stateMutability": "nonpayable",
      "type": "function"
    },
    {
      "inputs": [
        {
          "internalType": "bytes32",
          "name": "cTokenTicker",
          "type": "bytes32"
        }
      ],
      "name": "getUnderlyingPrice",
      "outputs": [
        {
          "internalType": "uint256",
          "name": "",
          "type": "uint256"
        }
      ],
      "stateMutability": "view",
      "type": "function",
      "constant": true
    },
    {
      "inputs": [
        {
          "internalType": "bytes32",
          "name": "cTokenTicker",
          "type": "bytes32"
        }
      ],
      "name": "getUnderlyingBalance",
      "outputs": [
        {
          "internalType": "uint256",
          "name": "",
          "type": "uint256"
        }
      ],
      "stateMutability": "nonpayable",
      "type": "function"
    }
  ],
  "bytecode": "0x60806040523480156200001157600080fd5b5060405162004f9f38038062004f9f833981810160405281019062000037919062000160565b828282826000806101000a81548173ffffffffffffffffffffffffffffffffffffffff021916908373ffffffffffffffffffffffffffffffffffffffff16021790555081600160006101000a81548173ffffffffffffffffffffffffffffffffffffffff021916908373ffffffffffffffffffffffffffffffffffffffff16021790555080600260006101000a81548173ffffffffffffffffffffffffffffffffffffffff021916908373ffffffffffffffffffffffffffffffffffffffff16021790555050505033600760006101000a81548173ffffffffffffffffffffffffffffffffffffffff021916908373ffffffffffffffffffffffffffffffffffffffff16021790555050505062000204565b6000815190506200015a81620001ea565b92915050565b6000806000606084860312156200017657600080fd5b6000620001868682870162000149565b9350506020620001998682870162000149565b9250506040620001ac8682870162000149565b9150509250925092565b6000620001c382620001ca565b9050919050565b600073ffffffffffffffffffffffffffffffffffffffff82169050919050565b620001f581620001b6565b81146200020157600080fd5b50565b614d8b80620002146000396000f3fe6080604052600436106102545760003560e01c80638da5cb5b11610139578063acc9f109116100b6578063d4e0d76a1161007a578063d4e0d76a146108f4578063e063ca731461091f578063e22581e21461095c578063f14210a614610985578063f2b9fdb8146109ae578063f98adaef146109d75761025b565b8063acc9f109146107f6578063b142fabc1461081f578063b6faaf8a1461084a578063be274d3214610875578063c1a9018a146108b25761025b565b8063a1b4d011116100fd578063a1b4d01114610711578063aa6ca8081461073c578063aadb694314610767578063abdb5ea8146107a4578063ac84ca14146107cd5761025b565b80638da5cb5b14610619578063904194a3146106445780639776aacf146106825780639d87440b146106ab5780639ead7222146106d45761025b565b80633804ee19116101d2578063566c606511610196578063566c6065146104f75780635d95df8a146105345780635fe3b567146105715780636e66df101461059c5780637ad3fca9146105c55780637b2af625146105f05761025b565b80633804ee19146104265780634b8a352914610451578063507c62dd1461047a578063512ed506146104a3578063525d02b8146104ce5761025b565b80631de26e16116102195780631de26e161461032f5780631e9a6950146103585780631fdbdc85146103815780632630c12f146103be578063301cc7f7146103e95761025b565b8062476a341461026057806301f6d04d14610289578063040cf020146102c657806312793e42146102ef5780631bd85bdb146103185761025b565b3661025b57005b600080fd5b34801561026c57600080fd5b5061028760048036038101906102829190613e4f565b610a14565b005b34801561029557600080fd5b506102b060048036038101906102ab9190613e4f565b610b5d565b6040516102bd9190614aab565b60405180910390f35b3480156102d257600080fd5b506102ed60048036038101906102e89190613f17565b610ba5565b005b3480156102fb57600080fd5b5061031660048036038101906103119190613f53565b610dd4565b005b34801561032457600080fd5b5061032d610e23565b005b34801561033b57600080fd5b5061035660048036038101906103519190613f17565b610ebd565b005b34801561036457600080fd5b5061037f600480360381019061037a9190613da9565b610f8d565b005b34801561038d57600080fd5b506103a860048036038101906103a39190613f53565b61102b565b6040516103b591906147f5565b60405180910390f35b3480156103ca57600080fd5b506103d361104f565b6040516103e091906148d0565b60405180910390f35b3480156103f557600080fd5b50610410600480360381019061040b9190613e4f565b611075565b60405161041d9190614aab565b60405180910390f35b34801561043257600080fd5b5061043b6110bd565b6040516104489190614aab565b60405180910390f35b34801561045d57600080fd5b5061047860048036038101906104739190613da9565b6110cc565b005b34801561048657600080fd5b506104a1600480360381019061049c9190613eb4565b6111af565b005b3480156104af57600080fd5b506104b8611449565b6040516104c591906146b5565b60405180910390f35b3480156104da57600080fd5b506104f560048036038101906104f09190613f53565b6114ef565b005b34801561050357600080fd5b5061051e60048036038101906105199190613e4f565b61158b565b60405161052b9190614aab565b60405180910390f35b34801561054057600080fd5b5061055b60048036038101906105569190613e4f565b6115d3565b60405161056891906147da565b60405180910390f35b34801561057d57600080fd5b506105866115f3565b60405161059391906148b5565b60405180910390f35b3480156105a857600080fd5b506105c360048036038101906105be9190613f17565b611617565b005b3480156105d157600080fd5b506105da611846565b6040516105e79190614aab565b60405180910390f35b3480156105fc57600080fd5b5061061760048036038101906106129190613f53565b6118ee565b005b34801561062557600080fd5b5061062e61193f565b60405161063b91906146b5565b60405180910390f35b34801561065057600080fd5b5061066b60048036038101906106669190613e4f565b611965565b604051610679929190614810565b60405180910390f35b34801561068e57600080fd5b506106a960048036038101906106a49190613e78565b6119a9565b005b3480156106b757600080fd5b506106d260048036038101906106cd9190613e4f565b611af8565b005b3480156106e057600080fd5b506106fb60048036038101906106f69190613f53565b611cc8565b60405161070891906147f5565b60405180910390f35b34801561071d57600080fd5b50610726611cec565b604051610733919061489a565b60405180910390f35b34801561074857600080fd5b50610751611d12565b60405161075e9190614796565b60405180910390f35b34801561077357600080fd5b5061078e60048036038101906107899190613e4f565b611e50565b60405161079b9190614aab565b60405180910390f35b3480156107b057600080fd5b506107cb60048036038101906107c69190613da9565b611e98565b005b3480156107d957600080fd5b506107f460048036038101906107ef9190613f53565b611f8b565b005b34801561080257600080fd5b5061081d60048036038101906108189190613f53565b61206a565b005b34801561082b57600080fd5b5061083461215e565b60405161084191906147b8565b60405180910390f35b34801561085657600080fd5b5061085f6123bd565b60405161086c9190614aab565b60405180910390f35b34801561088157600080fd5b5061089c60048036038101906108979190613d57565b6123c3565b6040516108a99190614aab565b60405180910390f35b3480156108be57600080fd5b506108d960048036038101906108d49190613e4f565b61247c565b6040516108eb96959493929190614839565b60405180910390f35b34801561090057600080fd5b50610909612512565b6040516109169190614aab565b60405180910390f35b34801561092b57600080fd5b5061094660048036038101906109419190613e4f565b612521565b6040516109539190614aab565b60405180910390f35b34801561096857600080fd5b50610983600480360381019061097e9190613f17565b612569565b005b34801561099157600080fd5b506109ac60048036038101906109a79190613f53565b612639565b005b3480156109ba57600080fd5b506109d560048036038101906109d09190613da9565b61275c565b005b3480156109e357600080fd5b506109fe60048036038101906109f99190613e4f565b6128df565b604051610a0b9190614aab565b60405180910390f35b600760009054906101000a900473ffffffffffffffffffffffffffffffffffffffff1673ffffffffffffffffffffffffffffffffffffffff163373ffffffffffffffffffffffffffffffffffffffff1614610aa4576040517f08c379a0000000000000000000000000000000000000000000000000000000008152600401610a9b90614a2b565b60405180910390fd5b610ae36004600083815260200190815260200160002060010160009054906101000a900473ffffffffffffffffffffffffffffffffffffffff16612927565b60006004600083815260200190815260200160002060030160156101000a81548160ff02191690831515021790555060006008600083815260200190815260200160002060006101000a81548160ff021916908315150217905550610b546001600954612a1e90919063ffffffff16565b60098190555050565b6000610b9e6004600084815260200190815260200160002060010160009054906101000a900473ffffffffffffffffffffffffffffffffffffffff16612aa1565b9050919050565b600760009054906101000a900473ffffffffffffffffffffffffffffffffffffffff1673ffffffffffffffffffffffffffffffffffffffff163373ffffffffffffffffffffffffffffffffffffffff1614610c35576040517f08c379a0000000000000000000000000000000000000000000000000000000008152600401610c2c90614a2b565b60405180910390fd5b60006003600084815260200190815260200160002060010160009054906101000a900473ffffffffffffffffffffffffffffffffffffffff16905060008173ffffffffffffffffffffffffffffffffffffffff166370a08231306040518263ffffffff1660e01b8152600401610cab91906146d0565b60206040518083038186803b158015610cc357600080fd5b505afa158015610cd7573d6000803e3d6000fd5b505050506040513d601f19601f82011682018060405250810190610cfb9190613f7c565b905082811015610d40576040517f08c379a0000000000000000000000000000000000000000000000000000000008152600401610d379061498b565b60405180910390fd5b8173ffffffffffffffffffffffffffffffffffffffff1663a9059cbb33856040518363ffffffff1660e01b8152600401610d7b929190614722565b602060405180830381600087803b158015610d9557600080fd5b505af1158015610da9573d6000803e3d6000fd5b505050506040513d601f19601f82011682018060405250810190610dcd9190613e26565b5050505050565b80471015610e17576040517f08c379a0000000000000000000000000000000000000000000000000000000008152600401610e0e9061498b565b60405180910390fd5b610e2081612b35565b50565b600760009054906101000a900473ffffffffffffffffffffffffffffffffffffffff1673ffffffffffffffffffffffffffffffffffffffff163373ffffffffffffffffffffffffffffffffffffffff1614610eb3576040517f08c379a0000000000000000000000000000000000000000000000000000000008152600401610eaa90614a2b565b60405180910390fd5b610ebb612bbb565b565b60006003600084815260200190815260200160002060010160009054906101000a900473ffffffffffffffffffffffffffffffffffffffff1690508073ffffffffffffffffffffffffffffffffffffffff166323b872dd3330856040518463ffffffff1660e01b8152600401610f35939291906146eb565b602060405180830381600087803b158015610f4f57600080fd5b505af1158015610f63573d6000803e3d6000fd5b505050506040513d601f19601f82011682018060405250810190610f879190613e26565b50505050565b600760009054906101000a900473ffffffffffffffffffffffffffffffffffffffff1673ffffffffffffffffffffffffffffffffffffffff163373ffffffffffffffffffffffffffffffffffffffff161461101d576040517f08c379a000000000000000000000000000000000000000000000000000000000815260040161101490614a2b565b60405180910390fd5b6110278282612c48565b5050565b6006818154811061103b57600080fd5b906000526020600020016000915090505481565b600160009054906101000a900473ffffffffffffffffffffffffffffffffffffffff1681565b60006110b66004600084815260200190815260200160002060010160009054906101000a900473ffffffffffffffffffffffffffffffffffffffff16612d25565b9050919050565b60006110c7612ecb565b905090565b600760009054906101000a900473ffffffffffffffffffffffffffffffffffffffff1673ffffffffffffffffffffffffffffffffffffffff163373ffffffffffffffffffffffffffffffffffffffff161461115c576040517f08c379a000000000000000000000000000000000000000000000000000000000815260040161115390614a2b565b60405180910390fd5b6000600954116111a1576040517f08c379a0000000000000000000000000000000000000000000000000000000008152600401611198906149cb565b60405180910390fd5b6111ab8282613052565b5050565b600760009054906101000a900473ffffffffffffffffffffffffffffffffffffffff1673ffffffffffffffffffffffffffffffffffffffff163373ffffffffffffffffffffffffffffffffffffffff161461123f576040517f08c379a000000000000000000000000000000000000000000000000000000000815260040161123690614a2b565b60405180910390fd5b60008373ffffffffffffffffffffffffffffffffffffffff16636f307dc36040518163ffffffff1660e01b815260040160206040518083038186803b15801561128757600080fd5b505afa15801561129b573d6000803e3d6000fd5b505050506040513d601f19601f820116820180604052508101906112bf9190613d80565b90506040518060c001604052808681526020018573ffffffffffffffffffffffffffffffffffffffff1681526020018481526020018273ffffffffffffffffffffffffffffffffffffffff1681526020018360ff16815260200160001515815250600460008781526020019081526020016000206000820151816000015560208201518160010160006101000a81548173ffffffffffffffffffffffffffffffffffffffff021916908373ffffffffffffffffffffffffffffffffffffffff1602179055506040820151816002015560608201518160030160006101000a81548173ffffffffffffffffffffffffffffffffffffffff021916908373ffffffffffffffffffffffffffffffffffffffff16021790555060808201518160030160146101000a81548160ff021916908360ff16021790555060a08201518160030160156101000a81548160ff02191690831515021790555090505060068590806001815401808255809150506001900390600052602060002001600090919091909150555050505050565b60008060009054906101000a900473ffffffffffffffffffffffffffffffffffffffff1673ffffffffffffffffffffffffffffffffffffffff16639d1b5a0a6040518163ffffffff1660e01b815260040160206040518083038186803b1580156114b257600080fd5b505afa1580156114c6573d6000803e3d6000fd5b505050506040513d601f19601f820116820180604052508101906114ea9190613d80565b905090565b600760009054906101000a900473ffffffffffffffffffffffffffffffffffffffff1673ffffffffffffffffffffffffffffffffffffffff163373ffffffffffffffffffffffffffffffffffffffff161461157f576040517f08c379a000000000000000000000000000000000000000000000000000000000815260040161157690614a2b565b60405180910390fd5b6115888161312f565b50565b60006115cc6004600084815260200190815260200160002060010160009054906101000a900473ffffffffffffffffffffffffffffffffffffffff166131e0565b9050919050565b60086020528060005260406000206000915054906101000a900460ff1681565b60008054906101000a900473ffffffffffffffffffffffffffffffffffffffff1681565b600760009054906101000a900473ffffffffffffffffffffffffffffffffffffffff1673ffffffffffffffffffffffffffffffffffffffff163373ffffffffffffffffffffffffffffffffffffffff16146116a7576040517f08c379a000000000000000000000000000000000000000000000000000000000815260040161169e90614a2b565b60405180910390fd5b60006004600084815260200190815260200160002060010160009054906101000a900473ffffffffffffffffffffffffffffffffffffffff16905060008173ffffffffffffffffffffffffffffffffffffffff166370a08231306040518263ffffffff1660e01b815260040161171d91906146d0565b60206040518083038186803b15801561173557600080fd5b505afa158015611749573d6000803e3d6000fd5b505050506040513d601f19601f8201168201806040525081019061176d9190613f7c565b9050828110156117b2576040517f08c379a00000000000000000000000000000000000000000000000000000000081526004016117a99061498b565b60405180910390fd5b8173ffffffffffffffffffffffffffffffffffffffff1663a9059cbb33856040518363ffffffff1660e01b81526004016117ed929190614722565b602060405180830381600087803b15801561180757600080fd5b505af115801561181b573d6000803e3d6000fd5b505050506040513d601f19601f8201168201806040525081019061183f9190613e26565b5050505050565b600080611851611449565b9050600081905060008173ffffffffffffffffffffffffffffffffffffffff166370a08231306040518263ffffffff1660e01b815260040161189391906146b5565b60206040518083038186803b1580156118ab57600080fd5b505afa1580156118bf573d6000803e3d6000fd5b505050506040513d601f19601f820116820180604052508101906118e39190613f7c565b905080935050505090565b600060095411611933576040517f08c379a000000000000000000000000000000000000000000000000000000000815260040161192a906149cb565b60405180910390fd5b61193c8161327f565b50565b600760009054906101000a900473ffffffffffffffffffffffffffffffffffffffff1681565b60036020528060005260406000206000915090508060000154908060010160009054906101000a900473ffffffffffffffffffffffffffffffffffffffff16905082565b600760009054906101000a900473ffffffffffffffffffffffffffffffffffffffff1673ffffffffffffffffffffffffffffffffffffffff163373ffffffffffffffffffffffffffffffffffffffff1614611a39576040517f08c379a0000000000000000000000000000000000000000000000000000000008152600401611a3090614a2b565b60405180910390fd5b60405180604001604052808381526020018273ffffffffffffffffffffffffffffffffffffffff16815250600360008481526020019081526020016000206000820151816000015560208201518160010160006101000a81548173ffffffffffffffffffffffffffffffffffffffff021916908373ffffffffffffffffffffffffffffffffffffffff16021790555090505060058290806001815401808255809150506001900390600052602060002001600090919091909150555050565b600760009054906101000a900473ffffffffffffffffffffffffffffffffffffffff1673ffffffffffffffffffffffffffffffffffffffff163373ffffffffffffffffffffffffffffffffffffffff1614611b88576040517f08c379a0000000000000000000000000000000000000000000000000000000008152600401611b7f90614a2b565b60405180910390fd5b6000611bc96004600084815260200190815260200160002060010160009054906101000a900473ffffffffffffffffffffffffffffffffffffffff16613330565b905060008111611c0e576040517f08c379a0000000000000000000000000000000000000000000000000000000008152600401611c059061498b565b60405180910390fd5b611c4d6004600084815260200190815260200160002060010160009054906101000a900473ffffffffffffffffffffffffffffffffffffffff166133cd565b60016004600084815260200190815260200160002060030160156101000a81548160ff02191690831515021790555060016008600084815260200190815260200160002060006101000a81548160ff021916908315150217905550611cbe600160095461357290919063ffffffff16565b6009819055505050565b60058181548110611cd857600080fd5b906000526020600020016000915090505481565b600260009054906101000a900473ffffffffffffffffffffffffffffffffffffffff1681565b6060600060058054905067ffffffffffffffff81118015611d3257600080fd5b50604051908082528060200260200182016040528015611d6c57816020015b611d59613b8e565b815260200190600190039081611d515790505b50905060005b600580549050811015611e485760405180604001604052806003600060058581548110611d9b57fe5b906000526020600020015481526020019081526020016000206000015481526020016003600060058581548110611dce57fe5b9060005260206000200154815260200190815260200160002060010160009054906101000a900473ffffffffffffffffffffffffffffffffffffffff1673ffffffffffffffffffffffffffffffffffffffff16815250828281518110611e3057fe5b60200260200101819052508080600101915050611d72565b508091505090565b6000611e916004600084815260200190815260200160002060010160009054906101000a900473ffffffffffffffffffffffffffffffffffffffff166135fa565b9050919050565b6000611ea383613699565b9050600081905060008173ffffffffffffffffffffffffffffffffffffffff166370a08231306040518263ffffffff1660e01b8152600401611ee591906146d0565b60206040518083038186803b158015611efd57600080fd5b505afa158015611f11573d6000803e3d6000fd5b505050506040513d601f19601f82011682018060405250810190611f359190613f7c565b905083811015611f7a576040517f08c379a0000000000000000000000000000000000000000000000000000000008152600401611f719061498b565b60405180910390fd5b611f848585613720565b5050505050565b600760009054906101000a900473ffffffffffffffffffffffffffffffffffffffff1673ffffffffffffffffffffffffffffffffffffffff163373ffffffffffffffffffffffffffffffffffffffff161461201b576040517f08c379a000000000000000000000000000000000000000000000000000000000815260040161201290614a2b565b60405180910390fd5b8047101561205e576040517f08c379a00000000000000000000000000000000000000000000000000000000081526004016120559061498b565b60405180910390fd5b61206781613914565b50565b6000612074611846565b9050818110156120b9576040517f08c379a00000000000000000000000000000000000000000000000000000000081526004016120b09061498b565b60405180910390fd5b60006120c3611449565b905060008190508073ffffffffffffffffffffffffffffffffffffffff1663a9059cbb33866040518363ffffffff1660e01b8152600401612105929190614722565b602060405180830381600087803b15801561211f57600080fd5b505af1158015612133573d6000803e3d6000fd5b505050506040513d601f19601f820116820180604052508101906121579190613e26565b5050505050565b6060600060068054905067ffffffffffffffff8111801561217e57600080fd5b506040519080825280602002602001820160405280156121b857816020015b6121a5613bc1565b81526020019060019003908161219d5790505b50905060005b6006805490508110156123b5576040518060c0016040528060046000600685815481106121e757fe5b90600052602060002001548152602001908152602001600020600001548152602001600460006006858154811061221a57fe5b9060005260206000200154815260200190815260200160002060010160009054906101000a900473ffffffffffffffffffffffffffffffffffffffff1673ffffffffffffffffffffffffffffffffffffffff168152602001600460006006858154811061228357fe5b9060005260206000200154815260200190815260200160002060020154815260200160046000600685815481106122b657fe5b9060005260206000200154815260200190815260200160002060030160009054906101000a900473ffffffffffffffffffffffffffffffffffffffff1673ffffffffffffffffffffffffffffffffffffffff168152602001600460006006858154811061231f57fe5b9060005260206000200154815260200190815260200160002060030160149054906101000a900460ff1660ff168152602001600460006006858154811061236257fe5b9060005260206000200154815260200190815260200160002060030160159054906101000a900460ff16151581525082828151811061239d57fe5b602002602001018190525080806001019150506121be565b508091505090565b60095481565b600080600160009054906101000a900473ffffffffffffffffffffffffffffffffffffffff1673ffffffffffffffffffffffffffffffffffffffff1663fc57d4df846040518263ffffffff1660e01b815260040161242191906146b5565b60206040518083038186803b15801561243957600080fd5b505afa15801561244d573d6000803e3d6000fd5b505050506040513d601f19601f820116820180604052508101906124719190613f7c565b905080915050919050565b60046020528060005260406000206000915090508060000154908060010160009054906101000a900473ffffffffffffffffffffffffffffffffffffffff16908060020154908060030160009054906101000a900473ffffffffffffffffffffffffffffffffffffffff16908060030160149054906101000a900460ff16908060030160159054906101000a900460ff16905086565b600061251c611846565b905090565b60006125626004600084815260200190815260200160002060010160009054906101000a900473ffffffffffffffffffffffffffffffffffffffff16613330565b9050919050565b60006004600084815260200190815260200160002060010160009054906101000a900473ffffffffffffffffffffffffffffffffffffffff1690508073ffffffffffffffffffffffffffffffffffffffff166323b872dd3330856040518463ffffffff1660e01b81526004016125e1939291906146eb565b602060405180830381600087803b1580156125fb57600080fd5b505af115801561260f573d6000803e3d6000fd5b505050506040513d601f19601f820116820180604052508101906126339190613e26565b50505050565b600760009054906101000a900473ffffffffffffffffffffffffffffffffffffffff1673ffffffffffffffffffffffffffffffffffffffff163373ffffffffffffffffffffffffffffffffffffffff16146126c9576040517f08c379a00000000000000000000000000000000000000000000000000000000081526004016126c090614a2b565b60405180910390fd5b8047101561270c576040517f08c379a00000000000000000000000000000000000000000000000000000000081526004016127039061498b565b60405180910390fd5b60003390508073ffffffffffffffffffffffffffffffffffffffff166108fc839081150290604051600060405180830381858888f19350505050158015612757573d6000803e3d6000fd5b505050565b600760009054906101000a900473ffffffffffffffffffffffffffffffffffffffff1673ffffffffffffffffffffffffffffffffffffffff163373ffffffffffffffffffffffffffffffffffffffff16146127ec576040517f08c379a00000000000000000000000000000000000000000000000000000000081526004016127e390614a2b565b60405180910390fd5b60006127f783613699565b9050600081905060008173ffffffffffffffffffffffffffffffffffffffff166370a08231306040518263ffffffff1660e01b815260040161283991906146d0565b60206040518083038186803b15801561285157600080fd5b505afa158015612865573d6000803e3d6000fd5b505050506040513d601f19601f820116820180604052508101906128899190613f7c565b9050838110156128ce576040517f08c379a00000000000000000000000000000000000000000000000000000000081526004016128c59061498b565b60405180910390fd5b6128d8858561399a565b5050505050565b60006129206004600084815260200190815260200160002060010160009054906101000a900473ffffffffffffffffffffffffffffffffffffffff166123c3565b9050919050565b60008060009054906101000a900473ffffffffffffffffffffffffffffffffffffffff1673ffffffffffffffffffffffffffffffffffffffff1663ede4edd0836040518263ffffffff1660e01b815260040161298391906146b5565b602060405180830381600087803b15801561299d57600080fd5b505af11580156129b1573d6000803e3d6000fd5b505050506040513d601f19601f820116820180604052508101906129d59190613f7c565b905060008114612a1a576040517f08c379a0000000000000000000000000000000000000000000000000000000008152600401612a11906148eb565b60405180910390fd5b5050565b600082821115612a96576040517f08c379a000000000000000000000000000000000000000000000000000000000815260040180806020018281038252601e8152602001807f536166654d6174683a207375627472616374696f6e206f766572666c6f77000081525060200191505060405180910390fd5b818303905092915050565b60008082905060008173ffffffffffffffffffffffffffffffffffffffff1663bd6d894d6040518163ffffffff1660e01b8152600401602060405180830381600087803b158015612af157600080fd5b505af1158015612b05573d6000803e3d6000fd5b505050506040513d601f19601f82011682018060405250810190612b299190613f7c565b90508092505050919050565b600260009054906101000a900473ffffffffffffffffffffffffffffffffffffffff1673ffffffffffffffffffffffffffffffffffffffff16634e4d9fea826040518263ffffffff1660e01b81526004016000604051808303818588803b158015612b9f57600080fd5b505af1158015612bb3573d6000803e3d6000fd5b505050505050565b60008054906101000a900473ffffffffffffffffffffffffffffffffffffffff1673ffffffffffffffffffffffffffffffffffffffff1663e9af0292306040518263ffffffff1660e01b8152600401612c1491906146b5565b600060405180830381600087803b158015612c2e57600080fd5b505af1158015612c42573d6000803e3d6000fd5b50505050565b600082905060008173ffffffffffffffffffffffffffffffffffffffff1663852a12e3846040518263ffffffff1660e01b8152600401612c889190614aab565b602060405180830381600087803b158015612ca257600080fd5b505af1158015612cb6573d6000803e3d6000fd5b505050506040513d601f19601f82011682018060405250810190612cda9190613f7c565b905060008114612d1f576040517f08c379a0000000000000000000000000000000000000000000000000000000008152600401612d169061490b565b60405180910390fd5b50505050565b60008060008060008054906101000a900473ffffffffffffffffffffffffffffffffffffffff1673ffffffffffffffffffffffffffffffffffffffff16635ec88c79306040518263ffffffff1660e01b8152600401612d8491906146b5565b60606040518083038186803b158015612d9c57600080fd5b505afa158015612db0573d6000803e3d6000fd5b505050506040513d601f19601f82011682018060405250810190612dd49190613fa5565b92509250925060008314612e1d576040517f08c379a0000000000000000000000000000000000000000000000000000000008152600401612e149061494b565b60405180910390fd5b60008114612e60576040517f08c379a0000000000000000000000000000000000000000000000000000000008152600401612e5790614a6b565b60405180910390fd5b60008211612ea3576040517f08c379a0000000000000000000000000000000000000000000000000000000008152600401612e9a9061496b565b60405180910390fd5b6000612eae866123c3565b90506000818481612ebb57fe5b0490508095505050505050919050565b60008060008060008054906101000a900473ffffffffffffffffffffffffffffffffffffffff1673ffffffffffffffffffffffffffffffffffffffff16635ec88c79306040518263ffffffff1660e01b8152600401612f2a91906146b5565b60606040518083038186803b158015612f4257600080fd5b505afa158015612f56573d6000803e3d6000fd5b505050506040513d601f19601f82011682018060405250810190612f7a9190613fa5565b92509250925060008314612fc3576040517f08c379a0000000000000000000000000000000000000000000000000000000008152600401612fba90614a8b565b60405180910390fd5b60008114613006576040517f08c379a0000000000000000000000000000000000000000000000000000000008152600401612ffd90614a6b565b60405180910390fd5b60008211613049576040517f08c379a000000000000000000000000000000000000000000000000000000000815260040161304090614a0b565b60405180910390fd5b81935050505090565b600082905060008173ffffffffffffffffffffffffffffffffffffffff1663c5ebeaec846040518263ffffffff1660e01b81526004016130929190614aab565b602060405180830381600087803b1580156130ac57600080fd5b505af11580156130c0573d6000803e3d6000fd5b505050506040513d601f19601f820116820180604052508101906130e49190613f7c565b905060008114613129576040517f08c379a00000000000000000000000000000000000000000000000000000000081526004016131209061492b565b60405180910390fd5b50505050565b600260009054906101000a900473ffffffffffffffffffffffffffffffffffffffff1673ffffffffffffffffffffffffffffffffffffffff1663852a12e3826040518263ffffffff1660e01b815260040161318a9190614aab565b602060405180830381600087803b1580156131a457600080fd5b505af11580156131b8573d6000803e3d6000fd5b505050506040513d601f19601f820116820180604052508101906131dc9190613f7c565b5050565b60008082905060008173ffffffffffffffffffffffffffffffffffffffff16633af9e669306040518263ffffffff1660e01b815260040161322191906146b5565b602060405180830381600087803b15801561323b57600080fd5b505af115801561324f573d6000803e3d6000fd5b505050506040513d601f19601f820116820180604052508101906132739190613f7c565b90508092505050919050565b600260009054906101000a900473ffffffffffffffffffffffffffffffffffffffff1673ffffffffffffffffffffffffffffffffffffffff1663c5ebeaec826040518263ffffffff1660e01b81526004016132da9190614aab565b602060405180830381600087803b1580156132f457600080fd5b505af1158015613308573d6000803e3d6000fd5b505050506040513d601f19601f8201168201806040525081019061332c9190613f7c565b5050565b60008082905060008173ffffffffffffffffffffffffffffffffffffffff166370a08231306040518263ffffffff1660e01b815260040161337191906146b5565b60206040518083038186803b15801561338957600080fd5b505afa15801561339d573d6000803e3d6000fd5b505050506040513d601f19601f820116820180604052508101906133c19190613f7c565b90508092505050919050565b6000600167ffffffffffffffff811180156133e757600080fd5b506040519080825280602002602001820160405280156134165781602001602082028036833780820191505090505b509050818160008151811061342757fe5b602002602001019073ffffffffffffffffffffffffffffffffffffffff16908173ffffffffffffffffffffffffffffffffffffffff168152505060008060009054906101000a900473ffffffffffffffffffffffffffffffffffffffff1673ffffffffffffffffffffffffffffffffffffffff1663c2998238836040518263ffffffff1660e01b81526004016134bd9190614774565b600060405180830381600087803b1580156134d757600080fd5b505af11580156134eb573d6000803e3d6000fd5b505050506040513d6000823e3d601f19601f820116820180604052508101906135149190613de5565b905060008160008151811061352557fe5b60200260200101511461356d576040517f08c379a000000000000000000000000000000000000000000000000000000000815260040161356490614a4b565b60405180910390fd5b505050565b6000808284019050838110156135f0576040517f08c379a000000000000000000000000000000000000000000000000000000000815260040180806020018281038252601b8152602001807f536166654d6174683a206164646974696f6e206f766572666c6f77000000000081525060200191505060405180910390fd5b8091505092915050565b60008082905060008173ffffffffffffffffffffffffffffffffffffffff166317bfdfbc306040518263ffffffff1660e01b815260040161363b91906146b5565b602060405180830381600087803b15801561365557600080fd5b505af1158015613669573d6000803e3d6000fd5b505050506040513d601f19601f8201168201806040525081019061368d9190613f7c565b90508092505050919050565b60008173ffffffffffffffffffffffffffffffffffffffff16636f307dc36040518163ffffffff1660e01b815260040160206040518083038186803b1580156136e157600080fd5b505afa1580156136f5573d6000803e3d6000fd5b505050506040513d601f19601f820116820180604052508101906137199190613d80565b9050919050565b600082905060008173ffffffffffffffffffffffffffffffffffffffff16636f307dc36040518163ffffffff1660e01b815260040160206040518083038186803b15801561376d57600080fd5b505afa158015613781573d6000803e3d6000fd5b505050506040513d601f19601f820116820180604052508101906137a59190613d80565b905060008190508073ffffffffffffffffffffffffffffffffffffffff1663095ea7b386866040518363ffffffff1660e01b81526004016137e792919061474b565b602060405180830381600087803b15801561380157600080fd5b505af1158015613815573d6000803e3d6000fd5b505050506040513d601f19601f820116820180604052508101906138399190613e26565b5060008373ffffffffffffffffffffffffffffffffffffffff16630e752702866040518263ffffffff1660e01b81526004016138759190614aab565b602060405180830381600087803b15801561388f57600080fd5b505af11580156138a3573d6000803e3d6000fd5b505050506040513d601f19601f820116820180604052508101906138c79190613f7c565b90506000811461390c576040517f08c379a0000000000000000000000000000000000000000000000000000000008152600401613903906149eb565b60405180910390fd5b505050505050565b600260009054906101000a900473ffffffffffffffffffffffffffffffffffffffff1673ffffffffffffffffffffffffffffffffffffffff16631249c58b826040518263ffffffff1660e01b81526004016000604051808303818588803b15801561397e57600080fd5b505af1158015613992573d6000803e3d6000fd5b505050505050565b600082905060008173ffffffffffffffffffffffffffffffffffffffff16636f307dc36040518163ffffffff1660e01b815260040160206040518083038186803b1580156139e757600080fd5b505afa1580156139fb573d6000803e3d6000fd5b505050506040513d601f19601f82011682018060405250810190613a1f9190613d80565b905060008190508073ffffffffffffffffffffffffffffffffffffffff1663095ea7b386866040518363ffffffff1660e01b8152600401613a6192919061474b565b602060405180830381600087803b158015613a7b57600080fd5b505af1158015613a8f573d6000803e3d6000fd5b505050506040513d601f19601f82011682018060405250810190613ab39190613e26565b5060008373ffffffffffffffffffffffffffffffffffffffff1663a0712d68866040518263ffffffff1660e01b8152600401613aef9190614aab565b602060405180830381600087803b158015613b0957600080fd5b505af1158015613b1d573d6000803e3d6000fd5b505050506040513d601f19601f82011682018060405250810190613b419190613f7c565b905060008114613b86576040517f08c379a0000000000000000000000000000000000000000000000000000000008152600401613b7d906149ab565b60405180910390fd5b505050505050565b604051806040016040528060008019168152602001600073ffffffffffffffffffffffffffffffffffffffff1681525090565b6040518060c0016040528060008019168152602001600073ffffffffffffffffffffffffffffffffffffffff16815260200160008019168152602001600073ffffffffffffffffffffffffffffffffffffffff168152602001600060ff1681526020016000151581525090565b6000613c41613c3c84614af7565b614ac6565b90508083825260208201905082856020860282011115613c6057600080fd5b60005b85811015613c905781613c768882613d2d565b845260208401935060208301925050600181019050613c63565b5050509392505050565b600081359050613ca981614ce2565b92915050565b600081519050613cbe81614ce2565b92915050565b600082601f830112613cd557600080fd5b8151613ce5848260208601613c2e565b91505092915050565b600081519050613cfd81614cf9565b92915050565b600081359050613d1281614d10565b92915050565b600081359050613d2781614d27565b92915050565b600081519050613d3c81614d27565b92915050565b600081359050613d5181614d3e565b92915050565b600060208284031215613d6957600080fd5b6000613d7784828501613c9a565b91505092915050565b600060208284031215613d9257600080fd5b6000613da084828501613caf565b91505092915050565b60008060408385031215613dbc57600080fd5b6000613dca85828601613c9a565b9250506020613ddb85828601613d18565b9150509250929050565b600060208284031215613df757600080fd5b600082015167ffffffffffffffff811115613e1157600080fd5b613e1d84828501613cc4565b91505092915050565b600060208284031215613e3857600080fd5b6000613e4684828501613cee565b91505092915050565b600060208284031215613e6157600080fd5b6000613e6f84828501613d03565b91505092915050565b60008060408385031215613e8b57600080fd5b6000613e9985828601613d03565b9250506020613eaa85828601613c9a565b9150509250929050565b60008060008060808587031215613eca57600080fd5b6000613ed887828801613d03565b9450506020613ee987828801613c9a565b9350506040613efa87828801613d03565b9250506060613f0b87828801613d42565b91505092959194509250565b60008060408385031215613f2a57600080fd5b6000613f3885828601613d03565b9250506020613f4985828601613d18565b9150509250929050565b600060208284031215613f6557600080fd5b6000613f7384828501613d18565b91505092915050565b600060208284031215613f8e57600080fd5b6000613f9c84828501613d2d565b91505092915050565b600080600060608486031215613fba57600080fd5b6000613fc886828701613d2d565b9350506020613fd986828701613d2d565b9250506040613fea86828701613d2d565b9150509250925092565b6000614000838361404b565b60208301905092915050565b600061401883836145de565b60408301905092915050565b6000614030838361460d565b60c08301905092915050565b61404581614c3e565b82525050565b61405481614bdf565b82525050565b61406381614bdf565b82525050565b600061407482614b53565b61407e8185614b9b565b935061408983614b23565b8060005b838110156140ba5781516140a18882613ff4565b97506140ac83614b74565b92505060018101905061408d565b5085935050505092915050565b60006140d282614b5e565b6140dc8185614bac565b93506140e783614b33565b8060005b838110156141185781516140ff888261400c565b975061410a83614b81565b9250506001810190506140eb565b5085935050505092915050565b600061413082614b69565b61413a8185614bbd565b935061414583614b43565b8060005b8381101561417657815161415d8882614024565b975061416883614b8e565b925050600181019050614149565b5085935050505092915050565b61418c81614bf1565b82525050565b61419b81614bf1565b82525050565b6141aa81614bfd565b82525050565b6141b981614bfd565b82525050565b6141c881614c50565b82525050565b6141d781614c74565b82525050565b6141e681614c98565b82525050565b60006141f9602083614bce565b91507f436f6d7074726f6c6c65722e657869744d61726b65742829206661696c65642e6000830152602082019050919050565b6000614239601783614bce565b91507f63546f6b656e2e72656465656d2829206661696c65642e0000000000000000006000830152602082019050919050565b6000614279601783614bce565b91507f63546f6b656e2e626f72726f772829206661696c65642e0000000000000000006000830152602082019050919050565b60006142b9602983614bce565b91507f436f6d7074726f6c6c65722e6765744163636f756e744c69717569646974792860008301527f29206661696c65642e00000000000000000000000000000000000000000000006020830152604082019050919050565b600061431f601d83614bce565b91507f6163636f756e74206861732065786365737320636f6c6c61746572616c0000006000830152602082019050919050565b600061435f601283614bce565b91507f6e6f7420656e6f7567682062616c616e636500000000000000000000000000006000830152602082019050919050565b600061439f601583614bce565b91507f63546f6b656e2e6d696e742829206661696c65642e00000000000000000000006000830152602082019050919050565b60006143df601983614bce565b91507f6d7573742073657420636f6c6c61746572616c206669727374000000000000006000830152602082019050919050565b600061441f601c83614bce565b91507f63546f6b656e2e7265706179426f72726f772829206661696c65642e000000006000830152602082019050919050565b600061445f602083614bce565b91507f6163636f756e7420646f6573206e6f74206861766520636f6c6c61746572616c6000830152602082019050919050565b600061449f600a83614bce565b91507f6f6e6c79206f776e6572000000000000000000000000000000000000000000006000830152602082019050919050565b60006144df602283614bce565b91507f436f6d7074726f6c6c65722e656e7465724d61726b6574732829206661696c6560008301527f642e0000000000000000000000000000000000000000000000000000000000006020830152604082019050919050565b6000614545601283614bce565b91507f6163636f756e7420756e646572776174657200000000000000000000000000006000830152602082019050919050565b6000614585602983614bce565b91507f636f6d7074726f6c6c6572236765744163636f756e744c69717569646974792860008301527f29206661696c65642e00000000000000000000000000000000000000000000006020830152604082019050919050565b6040820160008201516145f460008501826141a1565b506020820151614607602085018261404b565b50505050565b60c08201600082015161462360008501826141a1565b506020820151614636602085018261404b565b50604082015161464960408501826141a1565b50606082015161465c606085018261404b565b50608082015161466f6080850182614697565b5060a082015161468260a0850182614183565b50505050565b61469181614c27565b82525050565b6146a081614c31565b82525050565b6146af81614c31565b82525050565b60006020820190506146ca600083018461405a565b92915050565b60006020820190506146e5600083018461403c565b92915050565b6000606082019050614700600083018661403c565b61470d602083018561403c565b61471a6040830184614688565b949350505050565b6000604082019050614737600083018561403c565b6147446020830184614688565b9392505050565b6000604082019050614760600083018561405a565b61476d6020830184614688565b9392505050565b6000602082019050818103600083015261478e8184614069565b905092915050565b600060208201905081810360008301526147b081846140c7565b905092915050565b600060208201905081810360008301526147d28184614125565b905092915050565b60006020820190506147ef6000830184614192565b92915050565b600060208201905061480a60008301846141b0565b92915050565b600060408201905061482560008301856141b0565b614832602083018461405a565b9392505050565b600060c08201905061484e60008301896141b0565b61485b602083018861405a565b61486860408301876141b0565b614875606083018661405a565b61488260808301856146a6565b61488f60a0830184614192565b979650505050505050565b60006020820190506148af60008301846141bf565b92915050565b60006020820190506148ca60008301846141ce565b92915050565b60006020820190506148e560008301846141dd565b92915050565b60006020820190508181036000830152614904816141ec565b9050919050565b600060208201905081810360008301526149248161422c565b9050919050565b600060208201905081810360008301526149448161426c565b9050919050565b60006020820190508181036000830152614964816142ac565b9050919050565b6000602082019050818103600083015261498481614312565b9050919050565b600060208201905081810360008301526149a481614352565b9050919050565b600060208201905081810360008301526149c481614392565b9050919050565b600060208201905081810360008301526149e4816143d2565b9050919050565b60006020820190508181036000830152614a0481614412565b9050919050565b60006020820190508181036000830152614a2481614452565b9050919050565b60006020820190508181036000830152614a4481614492565b9050919050565b60006020820190508181036000830152614a64816144d2565b9050919050565b60006020820190508181036000830152614a8481614538565b9050919050565b60006020820190508181036000830152614aa481614578565b9050919050565b6000602082019050614ac06000830184614688565b92915050565b6000604051905081810181811067ffffffffffffffff82111715614aed57614aec614ce0565b5b8060405250919050565b600067ffffffffffffffff821115614b1257614b11614ce0565b5b602082029050602081019050919050565b6000819050602082019050919050565b6000819050602082019050919050565b6000819050602082019050919050565b600081519050919050565b600081519050919050565b600081519050919050565b6000602082019050919050565b6000602082019050919050565b6000602082019050919050565b600082825260208201905092915050565b600082825260208201905092915050565b600082825260208201905092915050565b600082825260208201905092915050565b6000614bea82614c07565b9050919050565b60008115159050919050565b6000819050919050565b600073ffffffffffffffffffffffffffffffffffffffff82169050919050565b6000819050919050565b600060ff82169050919050565b6000614c4982614cbc565b9050919050565b6000614c5b82614c62565b9050919050565b6000614c6d82614c07565b9050919050565b6000614c7f82614c86565b9050919050565b6000614c9182614c07565b9050919050565b6000614ca382614caa565b9050919050565b6000614cb582614c07565b9050919050565b6000614cc782614cce565b9050919050565b6000614cd982614c07565b9050919050565bfe5b614ceb81614bdf565b8114614cf657600080fd5b50565b614d0281614bf1565b8114614d0d57600080fd5b50565b614d1981614bfd565b8114614d2457600080fd5b50565b614d3081614c27565b8114614d3b57600080fd5b50565b614d4781614c31565b8114614d5257600080fd5b5056fea26469706673582212203e130b930097f6cefe9f09ee5480ec98d96a3146c07966ce84464364dcd9eb0464736f6c63430007060033",
  "immutableReferences": {},
  "source": "// SPDX-License-Identifier: MIT\npragma solidity ^0.7.3;\npragma experimental ABIEncoderV2;\n\nimport \"@openzeppelin/contracts/token/ERC20/IERC20.sol\";\nimport \"@openzeppelin/contracts/math/SafeMath.sol\";\nimport \"./Compound.sol\";\n\ncontract CompoundIntegration is Compound {\n    using SafeMath for uint256;\n\n    struct Token {\n        bytes32 ticker;\n        address tokenAddress;\n    }\n\n    struct cToken {\n        bytes32 cTokenTicker;\n        address cTokenAddress;\n        bytes32 underlyingTicker;\n        address underlyingAddress;\n        uint8 underlyingDecimals;\n        bool collateral;\n    }\n\n    mapping(bytes32 => Token) public tokens;\n    mapping(bytes32 => cToken) public cTokens;\n    bytes32[] public tokenList;\n    bytes32[] public cTokenList;\n\n    address public owner;\n\n    mapping(bytes32 => bool) public isCollateral;\n    uint256 public collateralCount;\n\n    constructor(\n        address _comptroller,\n        address _priceOracle,\n        address _cETHAddress\n    ) Compound(_comptroller, _priceOracle, _cETHAddress) {\n        owner = msg.sender;\n    }\n\n    modifier onlyOwner() {\n        require(msg.sender == owner, \"only owner\");\n        _;\n    }\n\n    modifier ownCollateral() {\n        require(collateralCount > 0, \"must set collateral first\");\n        _;\n    }\n\n    function addToken(bytes32 ticker, address tokenAddress)\n        external\n        onlyOwner()\n    {\n        tokens[ticker] = Token(ticker, tokenAddress);\n        tokenList.push(ticker);\n    }\n\n    function addCToken(\n        bytes32 cTokenTicker,\n        address cTokenAddress,\n        bytes32 underlyingTicker,\n        uint8 underlyingDecimals\n    ) external onlyOwner() {\n        address underlyingAddress = CTokenInterface(cTokenAddress).underlying();\n\n        cTokens[cTokenTicker] = cToken(\n            cTokenTicker,\n            cTokenAddress,\n            underlyingTicker,\n            underlyingAddress,\n            underlyingDecimals,\n            false\n        );\n        cTokenList.push(cTokenTicker);\n    }\n\n    function getTokens() external view returns (Token[] memory) {\n        Token[] memory _tokens = new Token[](tokenList.length);\n        for (uint256 i = 0; i < tokenList.length; i++) {\n            _tokens[i] = Token(\n                tokens[tokenList[i]].ticker,\n                tokens[tokenList[i]].tokenAddress\n            );\n        }\n\n        return _tokens;\n    }\n\n    function getCTokens() external view returns (cToken[] memory) {\n        cToken[] memory _cTokens = new cToken[](cTokenList.length);\n        for (uint256 i = 0; i < cTokenList.length; i++) {\n            _cTokens[i] = cToken(\n                cTokens[cTokenList[i]].cTokenTicker,\n                cTokens[cTokenList[i]].cTokenAddress,\n                cTokens[cTokenList[i]].underlyingTicker,\n                cTokens[cTokenList[i]].underlyingAddress,\n                cTokens[cTokenList[i]].underlyingDecimals,\n                cTokens[cTokenList[i]].collateral\n            );\n        }\n\n        return _cTokens;\n    }\n\n    function deposit(bytes32 ticker, uint256 amount) external {\n        IERC20 tokenInstance = IERC20(tokens[ticker].tokenAddress);\n        tokenInstance.transferFrom(msg.sender, address(this), amount);\n    }\n\n    function depositCToken(bytes32 cTokenTicker, uint256 amount) external {\n        CTokenInterface cTokenInstance =\n            CTokenInterface(cTokens[cTokenTicker].cTokenAddress);\n        cTokenInstance.transferFrom(msg.sender, address(this), amount);\n    }\n\n    function withdraw(bytes32 ticker, uint256 amount) external onlyOwner() {\n        IERC20 tokenInstance = IERC20(tokens[ticker].tokenAddress);\n        uint256 balance = tokenInstance.balanceOf(address(this));\n        require(balance >= amount, \"not enough balance\");\n\n        tokenInstance.transfer(msg.sender, amount);\n    }\n\n    function withdrawCToken(bytes32 cTokenTicker, uint256 amount)\n        external\n        onlyOwner()\n    {\n        CTokenInterface cTokenInstance =\n            CTokenInterface(cTokens[cTokenTicker].cTokenAddress);\n        uint256 balance = cTokenInstance.balanceOf(address(this));\n        require(balance >= amount, \"not enough balance\");\n\n        cTokenInstance.transfer(msg.sender, amount);\n    }\n\n    function withdrawETH(uint256 amount) external onlyOwner() {\n        require(address(this).balance >= amount, \"not enough balance\");\n\n        address payable recipient = msg.sender;\n        recipient.transfer(amount);\n    }\n\n    function supply(address cTokenAddress, uint256 underlyingAmount)\n        external\n        onlyOwner()\n    {\n        address underlyingAddress = _getUnderlyingAddress(cTokenAddress);\n        IERC20 tokenInstance = IERC20(underlyingAddress);\n        uint256 balance = tokenInstance.balanceOf(address(this));\n        require(balance >= underlyingAmount, \"not enough balance\");\n\n        _supply(cTokenAddress, underlyingAmount);\n    }\n\n    function supplyETH(uint256 underlyingAmount) external onlyOwner() {\n        require(\n            address(this).balance >= underlyingAmount,\n            \"not enough balance\"\n        );\n\n        _supplyETH(underlyingAmount);\n    }\n\n    function redeem(address cTokenAddress, uint256 redeemAmount)\n        external\n        onlyOwner()\n    {\n        _redeem(cTokenAddress, redeemAmount);\n    }\n\n    function redeemETH(uint256 redeemAmount) external onlyOwner() {\n        _redeemETH(redeemAmount);\n    }\n\n    function borrow(address cTokenAddress, uint256 borrowAmount)\n        external\n        onlyOwner()\n        ownCollateral()\n    {\n        _borrow(cTokenAddress, borrowAmount);\n    }\n\n    function borrowETH(uint256 borrowAmount) external ownCollateral() {\n        _borrowETH(borrowAmount);\n    }\n\n    function repayBorrow(address cTokenAddress, uint256 underlyingAmount)\n        external\n    {\n        address underlyingAddress = _getUnderlyingAddress(cTokenAddress);\n        IERC20 tokenInstance = IERC20(underlyingAddress);\n        uint256 balance = tokenInstance.balanceOf(address(this));\n        require(balance >= underlyingAmount, \"not enough balance\");\n\n        _repayBorrow(cTokenAddress, underlyingAmount);\n    }\n\n    function repayBorrowETH(uint256 underlyingAmount) external {\n        require(\n            address(this).balance >= underlyingAmount,\n            \"not enough balance\"\n        );\n\n        _repayBorrowETH(underlyingAmount);\n    }\n\n    function enterMarket(bytes32 cTokenTicker) external onlyOwner() {\n        uint256 supplyBalance =\n            _getSupplyBalance(cTokens[cTokenTicker].cTokenAddress);\n        require(supplyBalance > 0, \"not enough balance\");\n\n        _enterMarket(cTokens[cTokenTicker].cTokenAddress);\n\n        cTokens[cTokenTicker].collateral = true;\n        isCollateral[cTokenTicker] = true;\n        collateralCount = collateralCount.add(1);\n    }\n\n    function exitMarket(bytes32 cTokenTicker) external onlyOwner() {\n        _exitMarket(cTokens[cTokenTicker].cTokenAddress);\n\n        cTokens[cTokenTicker].collateral = false;\n        isCollateral[cTokenTicker] = false;\n        collateralCount = collateralCount.sub(1);\n    }\n\n    function claimComp() public onlyOwner() {\n        _claimComp();\n    }\n\n    function withdrawComp(uint256 amount) external {\n        uint256 compBalance = _getCompBalance();\n        require(compBalance >= amount, \"not enough balance\");\n\n        address compAddress = _getCompAddress();\n        IERC20 compToken = IERC20(compAddress);\n        compToken.transfer(msg.sender, amount);\n    }\n\n    function getCompBalance() external view returns (uint256) {\n        return _getCompBalance();\n    }\n\n    function getMaxBorrow(bytes32 cTokenTicker)\n        external\n        view\n        returns (uint256)\n    {\n        return _getMaxBorrow(cTokens[cTokenTicker].cTokenAddress);\n    }\n\n    function getBorrowLimit() external view returns (uint256) {\n        return _getBorrowLimit();\n    }\n\n    function getSupplyBalance(bytes32 cTokenTicker)\n        external\n        view\n        returns (uint256)\n    {\n        return _getSupplyBalance(cTokens[cTokenTicker].cTokenAddress);\n    }\n\n    function getBorrowBalance(bytes32 cTokenTicker) external returns (uint256) {\n        return _getBorrowBalance(cTokens[cTokenTicker].cTokenAddress);\n    }\n\n    function getExchangeRate(bytes32 cTokenTicker) external returns (uint256) {\n        return _getExchangeRate(cTokens[cTokenTicker].cTokenAddress);\n    }\n\n    function getUnderlyingPrice(bytes32 cTokenTicker)\n        external\n        view\n        returns (uint256)\n    {\n        return _getUnderlyingPrice(cTokens[cTokenTicker].cTokenAddress);\n    }\n\n    function getUnderlyingBalance(bytes32 cTokenTicker)\n        external\n        returns (uint256)\n    {\n        return _getUnderlyingBalance(cTokens[cTokenTicker].cTokenAddress);\n    }\n\n    receive() external payable {}\n}\n",
  "sourcePath": "/Users/ryan/Desktop/Projects/final/compound-integration/contracts/CompoundIntegration.sol",
  "compiler": {
    "name": "solc",
    "version": "0.7.6+commit.7338295f.Emscripten.clang"
  },
  "schemaVersion": "3.3.4",
  "updatedAt": "2021-04-23T01:34:22.678Z",
  "networkType": "ethereum",
  "devdoc": {
    "kind": "dev",
    "methods": {},
    "version": 1
  },
  "userdoc": {
    "kind": "user",
    "methods": {},
    "version": 1
  }
}